{
  "_format": "hh-sol-artifact-1",
  "contractName": "MyGovernor",
  "sourceName": "contracts/MyGovernor.sol",
  "abi": [
    {
      "inputs": [
        {
          "internalType": "contract IVotes",
          "name": "token",
          "type": "address"
        },
        {
          "internalType": "contract TimelockController",
          "name": "timelock",
          "type": "address"
        },
        {
          "internalType": "uint48",
          "name": "votingDelayBlocks",
          "type": "uint48"
        },
        {
          "internalType": "uint32",
          "name": "votingPeriodBlocks",
          "type": "uint32"
        },
        {
          "internalType": "uint256",
          "name": "proposalThresholdTokens",
          "type": "uint256"
        }
      ],
      "stateMutability": "nonpayable",
      "type": "constructor"
    },
    {
      "inputs": [],
      "name": "CheckpointUnorderedInsertion",
      "type": "error"
    },
    {
      "inputs": [],
      "name": "FailedCall",
      "type": "error"
    },
    {
      "inputs": [
        {
          "internalType": "address",
          "name": "voter",
          "type": "address"
        }
      ],
      "name": "GovernorAlreadyCastVote",
      "type": "error"
    },
    {
      "inputs": [
        {
          "internalType": "uint256",
          "name": "proposalId",
          "type": "uint256"
        }
      ],
      "name": "GovernorAlreadyQueuedProposal",
      "type": "error"
    },
    {
      "inputs": [],
      "name": "GovernorDisabledDeposit",
      "type": "error"
    },
    {
      "inputs": [
        {
          "internalType": "address",
          "name": "proposer",
          "type": "address"
        },
        {
          "internalType": "uint256",
          "name": "votes",
          "type": "uint256"
        },
        {
          "internalType": "uint256",
          "name": "threshold",
          "type": "uint256"
        }
      ],
      "name": "GovernorInsufficientProposerVotes",
      "type": "error"
    },
    {
      "inputs": [
        {
          "internalType": "uint256",
          "name": "targets",
          "type": "uint256"
        },
        {
          "internalType": "uint256",
          "name": "calldatas",
          "type": "uint256"
        },
        {
          "internalType": "uint256",
          "name": "values",
          "type": "uint256"
        }
      ],
      "name": "GovernorInvalidProposalLength",
      "type": "error"
    },
    {
      "inputs": [
        {
          "internalType": "uint256",
          "name": "quorumNumerator",
          "type": "uint256"
        },
        {
          "internalType": "uint256",
          "name": "quorumDenominator",
          "type": "uint256"
        }
      ],
      "name": "GovernorInvalidQuorumFraction",
      "type": "error"
    },
    {
      "inputs": [
        {
          "internalType": "address",
          "name": "voter",
          "type": "address"
        }
      ],
      "name": "GovernorInvalidSignature",
      "type": "error"
    },
    {
      "inputs": [],
      "name": "GovernorInvalidVoteParams",
      "type": "error"
    },
    {
      "inputs": [],
      "name": "GovernorInvalidVoteType",
      "type": "error"
    },
    {
      "inputs": [
        {
          "internalType": "uint256",
          "name": "votingPeriod",
          "type": "uint256"
        }
      ],
      "name": "GovernorInvalidVotingPeriod",
      "type": "error"
    },
    {
      "inputs": [
        {
          "internalType": "uint256",
          "name": "proposalId",
          "type": "uint256"
        }
      ],
      "name": "GovernorNonexistentProposal",
      "type": "error"
    },
    {
      "inputs": [
        {
          "internalType": "uint256",
          "name": "proposalId",
          "type": "uint256"
        }
      ],
      "name": "GovernorNotQueuedProposal",
      "type": "error"
    },
    {
      "inputs": [
        {
          "internalType": "address",
          "name": "account",
          "type": "address"
        }
      ],
      "name": "GovernorOnlyExecutor",
      "type": "error"
    },
    {
      "inputs": [],
      "name": "GovernorQueueNotImplemented",
      "type": "error"
    },
    {
      "inputs": [
        {
          "internalType": "address",
          "name": "proposer",
          "type": "address"
        }
      ],
      "name": "GovernorRestrictedProposer",
      "type": "error"
    },
    {
      "inputs": [
        {
          "internalType": "uint256",
          "name": "proposalId",
          "type": "uint256"
        },
        {
          "internalType": "address",
          "name": "account",
          "type": "address"
        }
      ],
      "name": "GovernorUnableToCancel",
      "type": "error"
    },
    {
      "inputs": [
        {
          "internalType": "uint256",
          "name": "proposalId",
          "type": "uint256"
        },
        {
          "internalType": "enum IGovernor.ProposalState",
          "name": "current",
          "type": "uint8"
        },
        {
          "internalType": "bytes32",
          "name": "expectedStates",
          "type": "bytes32"
        }
      ],
      "name": "GovernorUnexpectedProposalState",
      "type": "error"
    },
    {
      "inputs": [
        {
          "internalType": "address",
          "name": "account",
          "type": "address"
        },
        {
          "internalType": "uint256",
          "name": "currentNonce",
          "type": "uint256"
        }
      ],
      "name": "InvalidAccountNonce",
      "type": "error"
    },
    {
      "inputs": [],
      "name": "InvalidShortString",
      "type": "error"
    },
    {
      "inputs": [
        {
          "internalType": "uint8",
          "name": "bits",
          "type": "uint8"
        },
        {
          "internalType": "uint256",
          "name": "value",
          "type": "uint256"
        }
      ],
      "name": "SafeCastOverflowedUintDowncast",
      "type": "error"
    },
    {
      "inputs": [
        {
          "internalType": "string",
          "name": "str",
          "type": "string"
        }
      ],
      "name": "StringTooLong",
      "type": "error"
    },
    {
      "anonymous": false,
      "inputs": [],
      "name": "EIP712DomainChanged",
      "type": "event"
    },
    {
      "anonymous": false,
      "inputs": [
        {
          "indexed": false,
          "internalType": "uint256",
          "name": "proposalId",
          "type": "uint256"
        }
      ],
      "name": "ProposalCanceled",
      "type": "event"
    },
    {
      "anonymous": false,
      "inputs": [
        {
          "indexed": false,
          "internalType": "uint256",
          "name": "proposalId",
          "type": "uint256"
        },
        {
          "indexed": false,
          "internalType": "address",
          "name": "proposer",
          "type": "address"
        },
        {
          "indexed": false,
          "internalType": "address[]",
          "name": "targets",
          "type": "address[]"
        },
        {
          "indexed": false,
          "internalType": "uint256[]",
          "name": "values",
          "type": "uint256[]"
        },
        {
          "indexed": false,
          "internalType": "string[]",
          "name": "signatures",
          "type": "string[]"
        },
        {
          "indexed": false,
          "internalType": "bytes[]",
          "name": "calldatas",
          "type": "bytes[]"
        },
        {
          "indexed": false,
          "internalType": "uint256",
          "name": "voteStart",
          "type": "uint256"
        },
        {
          "indexed": false,
          "internalType": "uint256",
          "name": "voteEnd",
          "type": "uint256"
        },
        {
          "indexed": false,
          "internalType": "string",
          "name": "description",
          "type": "string"
        }
      ],
      "name": "ProposalCreated",
      "type": "event"
    },
    {
      "anonymous": false,
      "inputs": [
        {
          "indexed": false,
          "internalType": "uint256",
          "name": "proposalId",
          "type": "uint256"
        }
      ],
      "name": "ProposalExecuted",
      "type": "event"
    },
    {
      "anonymous": false,
      "inputs": [
        {
          "indexed": false,
          "internalType": "uint256",
          "name": "proposalId",
          "type": "uint256"
        },
        {
          "indexed": false,
          "internalType": "uint256",
          "name": "etaSeconds",
          "type": "uint256"
        }
      ],
      "name": "ProposalQueued",
      "type": "event"
    },
    {
      "anonymous": false,
      "inputs": [
        {
          "indexed": false,
          "internalType": "uint256",
          "name": "oldProposalThreshold",
          "type": "uint256"
        },
        {
          "indexed": false,
          "internalType": "uint256",
          "name": "newProposalThreshold",
          "type": "uint256"
        }
      ],
      "name": "ProposalThresholdSet",
      "type": "event"
    },
    {
      "anonymous": false,
      "inputs": [
        {
          "indexed": false,
          "internalType": "uint256",
          "name": "oldQuorumNumerator",
          "type": "uint256"
        },
        {
          "indexed": false,
          "internalType": "uint256",
          "name": "newQuorumNumerator",
          "type": "uint256"
        }
      ],
      "name": "QuorumNumeratorUpdated",
      "type": "event"
    },
    {
      "anonymous": false,
      "inputs": [
        {
          "indexed": false,
          "internalType": "address",
          "name": "oldTimelock",
          "type": "address"
        },
        {
          "indexed": false,
          "internalType": "address",
          "name": "newTimelock",
          "type": "address"
        }
      ],
      "name": "TimelockChange",
      "type": "event"
    },
    {
      "anonymous": false,
      "inputs": [
        {
          "indexed": true,
          "internalType": "address",
          "name": "voter",
          "type": "address"
        },
        {
          "indexed": false,
          "internalType": "uint256",
          "name": "proposalId",
          "type": "uint256"
        },
        {
          "indexed": false,
          "internalType": "uint8",
          "name": "support",
          "type": "uint8"
        },
        {
          "indexed": false,
          "internalType": "uint256",
          "name": "weight",
          "type": "uint256"
        },
        {
          "indexed": false,
          "internalType": "string",
          "name": "reason",
          "type": "string"
        }
      ],
      "name": "VoteCast",
      "type": "event"
    },
    {
      "anonymous": false,
      "inputs": [
        {
          "indexed": true,
          "internalType": "address",
          "name": "voter",
          "type": "address"
        },
        {
          "indexed": false,
          "internalType": "uint256",
          "name": "proposalId",
          "type": "uint256"
        },
        {
          "indexed": false,
          "internalType": "uint8",
          "name": "support",
          "type": "uint8"
        },
        {
          "indexed": false,
          "internalType": "uint256",
          "name": "weight",
          "type": "uint256"
        },
        {
          "indexed": false,
          "internalType": "string",
          "name": "reason",
          "type": "string"
        },
        {
          "indexed": false,
          "internalType": "bytes",
          "name": "params",
          "type": "bytes"
        }
      ],
      "name": "VoteCastWithParams",
      "type": "event"
    },
    {
      "anonymous": false,
      "inputs": [
        {
          "indexed": false,
          "internalType": "uint256",
          "name": "oldVotingDelay",
          "type": "uint256"
        },
        {
          "indexed": false,
          "internalType": "uint256",
          "name": "newVotingDelay",
          "type": "uint256"
        }
      ],
      "name": "VotingDelaySet",
      "type": "event"
    },
    {
      "anonymous": false,
      "inputs": [
        {
          "indexed": false,
          "internalType": "uint256",
          "name": "oldVotingPeriod",
          "type": "uint256"
        },
        {
          "indexed": false,
          "internalType": "uint256",
          "name": "newVotingPeriod",
          "type": "uint256"
        }
      ],
      "name": "VotingPeriodSet",
      "type": "event"
    },
    {
      "inputs": [],
      "name": "BALLOT_TYPEHASH",
      "outputs": [
        {
          "internalType": "bytes32",
          "name": "",
          "type": "bytes32"
        }
      ],
      "stateMutability": "view",
      "type": "function"
    },
    {
      "inputs": [],
      "name": "CLOCK_MODE",
      "outputs": [
        {
          "internalType": "string",
          "name": "",
          "type": "string"
        }
      ],
      "stateMutability": "view",
      "type": "function"
    },
    {
      "inputs": [],
      "name": "COUNTING_MODE",
      "outputs": [
        {
          "internalType": "string",
          "name": "",
          "type": "string"
        }
      ],
      "stateMutability": "pure",
      "type": "function"
    },
    {
      "inputs": [],
      "name": "EXTENDED_BALLOT_TYPEHASH",
      "outputs": [
        {
          "internalType": "bytes32",
          "name": "",
          "type": "bytes32"
        }
      ],
      "stateMutability": "view",
      "type": "function"
    },
    {
      "inputs": [
        {
          "internalType": "address[]",
          "name": "targets",
          "type": "address[]"
        },
        {
          "internalType": "uint256[]",
          "name": "values",
          "type": "uint256[]"
        },
        {
          "internalType": "bytes[]",
          "name": "calldatas",
          "type": "bytes[]"
        },
        {
          "internalType": "bytes32",
          "name": "descriptionHash",
          "type": "bytes32"
        }
      ],
      "name": "cancel",
      "outputs": [
        {
          "internalType": "uint256",
          "name": "",
          "type": "uint256"
        }
      ],
      "stateMutability": "nonpayable",
      "type": "function"
    },
    {
      "inputs": [
        {
          "internalType": "uint256",
          "name": "proposalId",
          "type": "uint256"
        },
        {
          "internalType": "uint8",
          "name": "support",
          "type": "uint8"
        }
      ],
      "name": "castVote",
      "outputs": [
        {
          "internalType": "uint256",
          "name": "",
          "type": "uint256"
        }
      ],
      "stateMutability": "nonpayable",
      "type": "function"
    },
    {
      "inputs": [
        {
          "internalType": "uint256",
          "name": "proposalId",
          "type": "uint256"
        },
        {
          "internalType": "uint8",
          "name": "support",
          "type": "uint8"
        },
        {
          "internalType": "address",
          "name": "voter",
          "type": "address"
        },
        {
          "internalType": "bytes",
          "name": "signature",
          "type": "bytes"
        }
      ],
      "name": "castVoteBySig",
      "outputs": [
        {
          "internalType": "uint256",
          "name": "",
          "type": "uint256"
        }
      ],
      "stateMutability": "nonpayable",
      "type": "function"
    },
    {
      "inputs": [
        {
          "internalType": "uint256",
          "name": "proposalId",
          "type": "uint256"
        },
        {
          "internalType": "uint8",
          "name": "support",
          "type": "uint8"
        },
        {
          "internalType": "string",
          "name": "reason",
          "type": "string"
        }
      ],
      "name": "castVoteWithReason",
      "outputs": [
        {
          "internalType": "uint256",
          "name": "",
          "type": "uint256"
        }
      ],
      "stateMutability": "nonpayable",
      "type": "function"
    },
    {
      "inputs": [
        {
          "internalType": "uint256",
          "name": "proposalId",
          "type": "uint256"
        },
        {
          "internalType": "uint8",
          "name": "support",
          "type": "uint8"
        },
        {
          "internalType": "string",
          "name": "reason",
          "type": "string"
        },
        {
          "internalType": "bytes",
          "name": "params",
          "type": "bytes"
        }
      ],
      "name": "castVoteWithReasonAndParams",
      "outputs": [
        {
          "internalType": "uint256",
          "name": "",
          "type": "uint256"
        }
      ],
      "stateMutability": "nonpayable",
      "type": "function"
    },
    {
      "inputs": [
        {
          "internalType": "uint256",
          "name": "proposalId",
          "type": "uint256"
        },
        {
          "internalType": "uint8",
          "name": "support",
          "type": "uint8"
        },
        {
          "internalType": "address",
          "name": "voter",
          "type": "address"
        },
        {
          "internalType": "string",
          "name": "reason",
          "type": "string"
        },
        {
          "internalType": "bytes",
          "name": "params",
          "type": "bytes"
        },
        {
          "internalType": "bytes",
          "name": "signature",
          "type": "bytes"
        }
      ],
      "name": "castVoteWithReasonAndParamsBySig",
      "outputs": [
        {
          "internalType": "uint256",
          "name": "",
          "type": "uint256"
        }
      ],
      "stateMutability": "nonpayable",
      "type": "function"
    },
    {
      "inputs": [],
      "name": "clock",
      "outputs": [
        {
          "internalType": "uint48",
          "name": "",
          "type": "uint48"
        }
      ],
      "stateMutability": "view",
      "type": "function"
    },
    {
      "inputs": [],
      "name": "eip712Domain",
      "outputs": [
        {
          "internalType": "bytes1",
          "name": "fields",
          "type": "bytes1"
        },
        {
          "internalType": "string",
          "name": "name",
          "type": "string"
        },
        {
          "internalType": "string",
          "name": "version",
          "type": "string"
        },
        {
          "internalType": "uint256",
          "name": "chainId",
          "type": "uint256"
        },
        {
          "internalType": "address",
          "name": "verifyingContract",
          "type": "address"
        },
        {
          "internalType": "bytes32",
          "name": "salt",
          "type": "bytes32"
        },
        {
          "internalType": "uint256[]",
          "name": "extensions",
          "type": "uint256[]"
        }
      ],
      "stateMutability": "view",
      "type": "function"
    },
    {
      "inputs": [
        {
          "internalType": "address[]",
          "name": "targets",
          "type": "address[]"
        },
        {
          "internalType": "uint256[]",
          "name": "values",
          "type": "uint256[]"
        },
        {
          "internalType": "bytes[]",
          "name": "calldatas",
          "type": "bytes[]"
        },
        {
          "internalType": "bytes32",
          "name": "descriptionHash",
          "type": "bytes32"
        }
      ],
      "name": "execute",
      "outputs": [
        {
          "internalType": "uint256",
          "name": "",
          "type": "uint256"
        }
      ],
      "stateMutability": "payable",
      "type": "function"
    },
    {
      "inputs": [
        {
          "internalType": "address[]",
          "name": "targets",
          "type": "address[]"
        },
        {
          "internalType": "uint256[]",
          "name": "values",
          "type": "uint256[]"
        },
        {
          "internalType": "bytes[]",
          "name": "calldatas",
          "type": "bytes[]"
        },
        {
          "internalType": "bytes32",
          "name": "descriptionHash",
          "type": "bytes32"
        }
      ],
      "name": "getProposalId",
      "outputs": [
        {
          "internalType": "uint256",
          "name": "",
          "type": "uint256"
        }
      ],
      "stateMutability": "view",
      "type": "function"
    },
    {
      "inputs": [
        {
          "internalType": "address",
          "name": "account",
          "type": "address"
        },
        {
          "internalType": "uint256",
          "name": "timepoint",
          "type": "uint256"
        }
      ],
      "name": "getVotes",
      "outputs": [
        {
          "internalType": "uint256",
          "name": "",
          "type": "uint256"
        }
      ],
      "stateMutability": "view",
      "type": "function"
    },
    {
      "inputs": [
        {
          "internalType": "address",
          "name": "account",
          "type": "address"
        },
        {
          "internalType": "uint256",
          "name": "timepoint",
          "type": "uint256"
        },
        {
          "internalType": "bytes",
          "name": "params",
          "type": "bytes"
        }
      ],
      "name": "getVotesWithParams",
      "outputs": [
        {
          "internalType": "uint256",
          "name": "",
          "type": "uint256"
        }
      ],
      "stateMutability": "view",
      "type": "function"
    },
    {
      "inputs": [
        {
          "internalType": "uint256",
          "name": "proposalId",
          "type": "uint256"
        },
        {
          "internalType": "address",
          "name": "account",
          "type": "address"
        }
      ],
      "name": "hasVoted",
      "outputs": [
        {
          "internalType": "bool",
          "name": "",
          "type": "bool"
        }
      ],
      "stateMutability": "view",
      "type": "function"
    },
    {
      "inputs": [
        {
          "internalType": "address[]",
          "name": "targets",
          "type": "address[]"
        },
        {
          "internalType": "uint256[]",
          "name": "values",
          "type": "uint256[]"
        },
        {
          "internalType": "bytes[]",
          "name": "calldatas",
          "type": "bytes[]"
        },
        {
          "internalType": "bytes32",
          "name": "descriptionHash",
          "type": "bytes32"
        }
      ],
      "name": "hashProposal",
      "outputs": [
        {
          "internalType": "uint256",
          "name": "",
          "type": "uint256"
        }
      ],
      "stateMutability": "pure",
      "type": "function"
    },
    {
      "inputs": [],
      "name": "name",
      "outputs": [
        {
          "internalType": "string",
          "name": "",
          "type": "string"
        }
      ],
      "stateMutability": "view",
      "type": "function"
    },
    {
      "inputs": [
        {
          "internalType": "address",
          "name": "owner",
          "type": "address"
        }
      ],
      "name": "nonces",
      "outputs": [
        {
          "internalType": "uint256",
          "name": "",
          "type": "uint256"
        }
      ],
      "stateMutability": "view",
      "type": "function"
    },
    {
      "inputs": [
        {
          "internalType": "address",
          "name": "",
          "type": "address"
        },
        {
          "internalType": "address",
          "name": "",
          "type": "address"
        },
        {
          "internalType": "uint256[]",
          "name": "",
          "type": "uint256[]"
        },
        {
          "internalType": "uint256[]",
          "name": "",
          "type": "uint256[]"
        },
        {
          "internalType": "bytes",
          "name": "",
          "type": "bytes"
        }
      ],
      "name": "onERC1155BatchReceived",
      "outputs": [
        {
          "internalType": "bytes4",
          "name": "",
          "type": "bytes4"
        }
      ],
      "stateMutability": "nonpayable",
      "type": "function"
    },
    {
      "inputs": [
        {
          "internalType": "address",
          "name": "",
          "type": "address"
        },
        {
          "internalType": "address",
          "name": "",
          "type": "address"
        },
        {
          "internalType": "uint256",
          "name": "",
          "type": "uint256"
        },
        {
          "internalType": "uint256",
          "name": "",
          "type": "uint256"
        },
        {
          "internalType": "bytes",
          "name": "",
          "type": "bytes"
        }
      ],
      "name": "onERC1155Received",
      "outputs": [
        {
          "internalType": "bytes4",
          "name": "",
          "type": "bytes4"
        }
      ],
      "stateMutability": "nonpayable",
      "type": "function"
    },
    {
      "inputs": [
        {
          "internalType": "address",
          "name": "",
          "type": "address"
        },
        {
          "internalType": "address",
          "name": "",
          "type": "address"
        },
        {
          "internalType": "uint256",
          "name": "",
          "type": "uint256"
        },
        {
          "internalType": "bytes",
          "name": "",
          "type": "bytes"
        }
      ],
      "name": "onERC721Received",
      "outputs": [
        {
          "internalType": "bytes4",
          "name": "",
          "type": "bytes4"
        }
      ],
      "stateMutability": "nonpayable",
      "type": "function"
    },
    {
      "inputs": [
        {
          "internalType": "uint256",
          "name": "proposalId",
          "type": "uint256"
        }
      ],
      "name": "proposalDeadline",
      "outputs": [
        {
          "internalType": "uint256",
          "name": "",
          "type": "uint256"
        }
      ],
      "stateMutability": "view",
      "type": "function"
    },
    {
      "inputs": [
        {
          "internalType": "uint256",
          "name": "proposalId",
          "type": "uint256"
        }
      ],
      "name": "proposalEta",
      "outputs": [
        {
          "internalType": "uint256",
          "name": "",
          "type": "uint256"
        }
      ],
      "stateMutability": "view",
      "type": "function"
    },
    {
      "inputs": [
        {
          "internalType": "uint256",
          "name": "proposalId",
          "type": "uint256"
        }
      ],
      "name": "proposalNeedsQueuing",
      "outputs": [
        {
          "internalType": "bool",
          "name": "",
          "type": "bool"
        }
      ],
      "stateMutability": "view",
      "type": "function"
    },
    {
      "inputs": [
        {
          "internalType": "uint256",
          "name": "proposalId",
          "type": "uint256"
        }
      ],
      "name": "proposalProposer",
      "outputs": [
        {
          "internalType": "address",
          "name": "",
          "type": "address"
        }
      ],
      "stateMutability": "view",
      "type": "function"
    },
    {
      "inputs": [
        {
          "internalType": "uint256",
          "name": "proposalId",
          "type": "uint256"
        }
      ],
      "name": "proposalSnapshot",
      "outputs": [
        {
          "internalType": "uint256",
          "name": "",
          "type": "uint256"
        }
      ],
      "stateMutability": "view",
      "type": "function"
    },
    {
      "inputs": [],
      "name": "proposalThreshold",
      "outputs": [
        {
          "internalType": "uint256",
          "name": "",
          "type": "uint256"
        }
      ],
      "stateMutability": "view",
      "type": "function"
    },
    {
      "inputs": [
        {
          "internalType": "uint256",
          "name": "proposalId",
          "type": "uint256"
        }
      ],
      "name": "proposalVotes",
      "outputs": [
        {
          "internalType": "uint256",
          "name": "againstVotes",
          "type": "uint256"
        },
        {
          "internalType": "uint256",
          "name": "forVotes",
          "type": "uint256"
        },
        {
          "internalType": "uint256",
          "name": "abstainVotes",
          "type": "uint256"
        }
      ],
      "stateMutability": "view",
      "type": "function"
    },
    {
      "inputs": [
        {
          "internalType": "address[]",
          "name": "targets",
          "type": "address[]"
        },
        {
          "internalType": "uint256[]",
          "name": "values",
          "type": "uint256[]"
        },
        {
          "internalType": "bytes[]",
          "name": "calldatas",
          "type": "bytes[]"
        },
        {
          "internalType": "string",
          "name": "description",
          "type": "string"
        }
      ],
      "name": "propose",
      "outputs": [
        {
          "internalType": "uint256",
          "name": "",
          "type": "uint256"
        }
      ],
      "stateMutability": "nonpayable",
      "type": "function"
    },
    {
      "inputs": [
        {
          "internalType": "address[]",
          "name": "targets",
          "type": "address[]"
        },
        {
          "internalType": "uint256[]",
          "name": "values",
          "type": "uint256[]"
        },
        {
          "internalType": "bytes[]",
          "name": "calldatas",
          "type": "bytes[]"
        },
        {
          "internalType": "bytes32",
          "name": "descriptionHash",
          "type": "bytes32"
        }
      ],
      "name": "queue",
      "outputs": [
        {
          "internalType": "uint256",
          "name": "",
          "type": "uint256"
        }
      ],
      "stateMutability": "nonpayable",
      "type": "function"
    },
    {
      "inputs": [
        {
          "internalType": "uint256",
          "name": "timepoint",
          "type": "uint256"
        }
      ],
      "name": "quorum",
      "outputs": [
        {
          "internalType": "uint256",
          "name": "",
          "type": "uint256"
        }
      ],
      "stateMutability": "view",
      "type": "function"
    },
    {
      "inputs": [],
      "name": "quorumDenominator",
      "outputs": [
        {
          "internalType": "uint256",
          "name": "",
          "type": "uint256"
        }
      ],
      "stateMutability": "view",
      "type": "function"
    },
    {
      "inputs": [
        {
          "internalType": "uint256",
          "name": "timepoint",
          "type": "uint256"
        }
      ],
      "name": "quorumNumerator",
      "outputs": [
        {
          "internalType": "uint256",
          "name": "",
          "type": "uint256"
        }
      ],
      "stateMutability": "view",
      "type": "function"
    },
    {
      "inputs": [],
      "name": "quorumNumerator",
      "outputs": [
        {
          "internalType": "uint256",
          "name": "",
          "type": "uint256"
        }
      ],
      "stateMutability": "view",
      "type": "function"
    },
    {
      "inputs": [
        {
          "internalType": "address",
          "name": "target",
          "type": "address"
        },
        {
          "internalType": "uint256",
          "name": "value",
          "type": "uint256"
        },
        {
          "internalType": "bytes",
          "name": "data",
          "type": "bytes"
        }
      ],
      "name": "relay",
      "outputs": [],
      "stateMutability": "payable",
      "type": "function"
    },
    {
      "inputs": [
        {
          "internalType": "uint256",
          "name": "newProposalThreshold",
          "type": "uint256"
        }
      ],
      "name": "setProposalThreshold",
      "outputs": [],
      "stateMutability": "nonpayable",
      "type": "function"
    },
    {
      "inputs": [
        {
          "internalType": "uint48",
          "name": "newVotingDelay",
          "type": "uint48"
        }
      ],
      "name": "setVotingDelay",
      "outputs": [],
      "stateMutability": "nonpayable",
      "type": "function"
    },
    {
      "inputs": [
        {
          "internalType": "uint32",
          "name": "newVotingPeriod",
          "type": "uint32"
        }
      ],
      "name": "setVotingPeriod",
      "outputs": [],
      "stateMutability": "nonpayable",
      "type": "function"
    },
    {
      "inputs": [
        {
          "internalType": "uint256",
          "name": "proposalId",
          "type": "uint256"
        }
      ],
      "name": "state",
      "outputs": [
        {
          "internalType": "enum IGovernor.ProposalState",
          "name": "",
          "type": "uint8"
        }
      ],
      "stateMutability": "view",
      "type": "function"
    },
    {
      "inputs": [
        {
          "internalType": "bytes4",
          "name": "interfaceId",
          "type": "bytes4"
        }
      ],
      "name": "supportsInterface",
      "outputs": [
        {
          "internalType": "bool",
          "name": "",
          "type": "bool"
        }
      ],
      "stateMutability": "view",
      "type": "function"
    },
    {
      "inputs": [],
      "name": "timelock",
      "outputs": [
        {
          "internalType": "address",
          "name": "",
          "type": "address"
        }
      ],
      "stateMutability": "view",
      "type": "function"
    },
    {
      "inputs": [],
      "name": "token",
      "outputs": [
        {
          "internalType": "contract IERC5805",
          "name": "",
          "type": "address"
        }
      ],
      "stateMutability": "view",
      "type": "function"
    },
    {
      "inputs": [
        {
          "internalType": "uint256",
          "name": "newQuorumNumerator",
          "type": "uint256"
        }
      ],
      "name": "updateQuorumNumerator",
      "outputs": [],
      "stateMutability": "nonpayable",
      "type": "function"
    },
    {
      "inputs": [
        {
          "internalType": "contract TimelockController",
          "name": "newTimelock",
          "type": "address"
        }
      ],
      "name": "updateTimelock",
      "outputs": [],
      "stateMutability": "nonpayable",
      "type": "function"
    },
    {
      "inputs": [],
      "name": "version",
      "outputs": [
        {
          "internalType": "string",
          "name": "",
          "type": "string"
        }
      ],
      "stateMutability": "view",
      "type": "function"
    },
    {
      "inputs": [],
      "name": "votingDelay",
      "outputs": [
        {
          "internalType": "uint256",
          "name": "",
          "type": "uint256"
        }
      ],
      "stateMutability": "view",
      "type": "function"
    },
    {
      "inputs": [],
      "name": "votingPeriod",
      "outputs": [
        {
          "internalType": "uint256",
          "name": "",
          "type": "uint256"
        }
      ],
      "stateMutability": "view",
      "type": "function"
    },
    {
      "stateMutability": "payable",
      "type": "receive"
    }
  ],
  "bytecode": "0x61018060405234801562000011575f80fd5b5060405162004d9938038062004d99833981016040819052620000349162000794565b836004868585856040518060400160405280601581526020017f4661726d6572734d61726b6574476f7665726e6f72000000000000000000000081525080620000826200019a60201b60201c565b6200008e825f620001b5565b610120526200009f816001620001b5565b61014052815160208084019190912060e052815190820120610100524660a0526200012c60e05161010051604080517f8b73c3c69bb8fe3d512ecc4cf759cc79239f7b179b0ffacaa9a75d522b39400f60208201529081019290925260608201524660808201523060a08201525f9060c00160405160208183030381529060405280519060200120905090565b60805250503060c0526003620001438282620008a5565b5062000151905083620001ed565b6200015c8262000253565b6200016781620002f8565b5050506001600160a01b031661016052620001828162000339565b506200018e81620003d8565b50505050505062000a1f565b6040805180820190915260018152603160f81b602082015290565b5f602083511015620001d457620001cc8362000441565b9050620001e7565b81620001e18482620008a5565b5060ff90505b92915050565b6008546040805165ffffffffffff928316815291831660208301527fc565b045403dc03c2eea82b81a0465edad9e2e7fc4d97e11421c209da93d7a93910160405180910390a16008805465ffffffffffff191665ffffffffffff92909216919091179055565b8063ffffffff165f03620002815760405163f1cfbf0560e01b81525f60048201526024015b60405180910390fd5b6008546040805163ffffffff66010000000000009093048316815291831660208301527f7e3f7f0708a84de9203036abaa450dccc85ad5ff52f78c170f3edb55cf5e8828910160405180910390a16008805463ffffffff90921666010000000000000263ffffffff60301b19909216919091179055565b60075460408051918252602082018390527fccb45da8d5717e6c4544694297c4ba5cf151d455c9bb0ed4fc7a38411bc05461910160405180910390a1600755565b606480821115620003685760405163243e544560e01b8152600481018390526024810182905260440162000278565b5f6200037362000483565b905062000398620003836200049e565b6200038e856200051f565b600a919062000558565b505060408051828152602081018590527f0553476bf02ef2726e8ce5ced78d63e26e602e4a2257b1f559418e24b4633997910160405180910390a1505050565b600b54604080516001600160a01b03928316815291831660208301527f08f74ea46ef7894f65eabfb5e6e695de773a000b47c529ab559178069b226401910160405180910390a1600b80546001600160a01b0319166001600160a01b0392909216919091179055565b5f80829050601f815111156200046e578260405163305a27a960e01b815260040162000278919062000971565b80516200047b82620009bf565b179392505050565b5f62000490600a62000574565b6001600160d01b0316905090565b5f620004aa6101605190565b6001600160a01b03166391ddadf46040518163ffffffff1660e01b8152600401602060405180830381865afa92505050801562000506575060408051601f3d908101601f191682019092526200050391810190620009e3565b60015b6200051a5762000515620005c1565b905090565b919050565b5f6001600160d01b0382111562000554576040516306dfcc6560e41b815260d060048201526024810183905260440162000278565b5090565b5f8062000567858585620005cd565b915091505b935093915050565b80545f908015620005b8576200059e8362000591600184620009ff565b5f91825260209091200190565b54660100000000000090046001600160d01b0316620005ba565b5f5b9392505050565b5f620005154362000732565b82545f9081908015620006d4575f620005ed8762000591600185620009ff565b805490915065ffffffffffff80821691660100000000000090046001600160d01b03169088168211156200063457604051632520601d60e01b815260040160405180910390fd5b8765ffffffffffff168265ffffffffffff16036200067257825465ffffffffffff1666010000000000006001600160d01b03891602178355620006c5565b6040805180820190915265ffffffffffff808a1682526001600160d01b03808a1660208085019182528d54600181018f555f8f815291909120945191519092166601000000000000029216919091179101555b94508593506200056c92505050565b50506040805180820190915265ffffffffffff80851682526001600160d01b0380851660208085019182528854600181018a555f8a81529182209551925190931666010000000000000291909316179201919091559050816200056c565b5f65ffffffffffff82111562000554576040516306dfcc6560e41b8152603060048201526024810183905260440162000278565b6001600160a01b03811681146200077b575f80fd5b50565b805165ffffffffffff811681146200051a575f80fd5b5f805f805f60a08688031215620007a9575f80fd5b8551620007b68162000766565b6020870151909550620007c98162000766565b9350620007d9604087016200077e565b9250606086015163ffffffff81168114620007f2575f80fd5b80925050608086015190509295509295909350565b634e487b7160e01b5f52604160045260245ffd5b600181811c908216806200083057607f821691505b6020821081036200084f57634e487b7160e01b5f52602260045260245ffd5b50919050565b601f821115620008a057805f5260205f20601f840160051c810160208510156200087c5750805b601f840160051c820191505b818110156200089d575f815560010162000888565b50505b505050565b81516001600160401b03811115620008c157620008c162000807565b620008d981620008d284546200081b565b8462000855565b602080601f8311600181146200090f575f8415620008f75750858301515b5f19600386901b1c1916600185901b17855562000969565b5f85815260208120601f198616915b828110156200093f578886015182559484019460019091019084016200091e565b50858210156200095d57878501515f19600388901b60f8161c191681555b505060018460011b0185555b505050505050565b5f602080835283518060208501525f5b818110156200099f5785810183015185820160400152820162000981565b505f604082860101526040601f19601f8301168501019250505092915050565b805160208083015191908110156200084f575f1960209190910360031b1b16919050565b5f60208284031215620009f4575f80fd5b620005ba826200077e565b81810381811115620001e757634e487b7160e01b5f52601160045260245ffd5b60805160a05160c05160e0516101005161012051610140516101605161430262000a975f395f81816109c101528181610e29015281816111f6015281816114bb0152611e7b01525f611dbf01525f611d9301525f612e3d01525f612e1501525f612d7001525f612d9a01525f612dc401526143025ff3fe6080604052600436106102a8575f3560e01c80637ecebe001161016f578063bc197c81116100d8578063deaaa7cc11610092578063ece40cc11161006d578063ece40cc114610956578063f23a6e6114610975578063f8ce560a14610994578063fc0c546a146109b3575f80fd5b8063deaaa7cc146108e5578063e540d01d14610918578063eb9019d414610937575f80fd5b8063bc197c8114610813578063c01f9e3714610832578063c28bc2fa14610851578063c59057e414610864578063d33219b414610883578063dd4e2ba5146108a0575f80fd5b8063a7713a7011610129578063a7713a7014610758578063a890c9101461076c578063a8f8a6681461078b578063a9a95294146107aa578063ab58fb8e146107c9578063b58131b0146107ff575f80fd5b80637ecebe001461068157806384b0196e146106b55780638ff262e3146106dc57806391ddadf4146106fb57806397c3d334146107265780639a802a6d14610739575f80fd5b806343859632116102115780635b8d0e0d116101cb5780635b8d0e0d146105c75780635f398a14146105e657806360c4247f1461060557806379051887146106245780637b3c71d3146106435780637d5e81e214610662575f80fd5b806343859632146104ca578063452115d6146105125780634bf5d7e914610531578063544ffc9c1461054557806354fd4d501461057f57806356781388146105a8575f80fd5b8063160cbed711610262578063160cbed7146104065780632656227d146104255780632d63f693146104385780632fe3e261146104575780633932abb11461048a5780633e4f49e61461049e575f80fd5b806301ffc9a7146102e357806302a251a31461031757806306f3f9e61461034257806306fdde0314610361578063143489d014610382578063150b7a02146103ce575f80fd5b366102df57306102b66109e5565b6001600160a01b0316146102dd57604051637485328f60e11b815260040160405180910390fd5b005b5f80fd5b3480156102ee575f80fd5b506103026102fd36600461333a565b6109fd565b60405190151581526020015b60405180910390f35b348015610322575f80fd5b50600854600160301b900463ffffffff165b60405190815260200161030e565b34801561034d575f80fd5b506102dd61035c366004613361565b610a69565b34801561036c575f80fd5b50610375610a7d565b60405161030e91906133c5565b34801561038d575f80fd5b506103b661039c366004613361565b5f908152600460205260409020546001600160a01b031690565b6040516001600160a01b03909116815260200161030e565b3480156103d9575f80fd5b506103ed6103e83660046134ae565b610b0d565b6040516001600160e01b0319909116815260200161030e565b348015610411575f80fd5b5061033461042036600461367d565b610b4f565b61033461043336600461367d565b610c1b565b348015610443575f80fd5b50610334610452366004613361565b610d83565b348015610462575f80fd5b506103347f3e83946653575f9a39005e1545185629e92736b7528ab20ca3816f315424a81181565b348015610495575f80fd5b50610334610da3565b3480156104a9575f80fd5b506104bd6104b8366004613361565b610db5565b60405161030e919061373a565b3480156104d5575f80fd5b506103026104e4366004613748565b5f8281526009602090815260408083206001600160a01b038516845260030190915290205460ff1692915050565b34801561051d575f80fd5b5061033461052c36600461367d565b610dbf565b34801561053c575f80fd5b50610375610e25565b348015610550575f80fd5b5061056461055f366004613361565b610ee5565b6040805193845260208401929092529082015260600161030e565b34801561058a575f80fd5b506040805180820190915260018152603160f81b6020820152610375565b3480156105b3575f80fd5b506103346105c2366004613786565b610f0a565b3480156105d2575f80fd5b506103346105e13660046137f4565b610f31565b3480156105f1575f80fd5b506103346106003660046138a6565b610fee565b348015610610575f80fd5b5061033461061f366004613361565b611036565b34801561062f575f80fd5b506102dd61063e366004613936565b611042565b34801561064e575f80fd5b5061033461065d366004613951565b611053565b34801561066d575f80fd5b5061033461067c3660046139a6565b6110a3565b34801561068c575f80fd5b5061033461069b366004613a52565b6001600160a01b03165f9081526002602052604090205490565b3480156106c0575f80fd5b506106c9611159565b60405161030e9796959493929190613aa7565b3480156106e7575f80fd5b506103346106f6366004613b16565b61119b565b348015610706575f80fd5b5061070f6111f3565b60405165ffffffffffff909116815260200161030e565b348015610731575f80fd5b506064610334565b348015610744575f80fd5b50610334610753366004613b63565b61127a565b348015610763575f80fd5b50610334611290565b348015610777575f80fd5b506102dd610786366004613a52565b6112a9565b348015610796575f80fd5b506103346107a536600461367d565b6112ba565b3480156107b5575f80fd5b506103026107c4366004613361565b6112c7565b3480156107d4575f80fd5b506103346107e3366004613361565b5f9081526004602052604090206001015465ffffffffffff1690565b34801561080a575f80fd5b506103346112cf565b34801561081e575f80fd5b506103ed61082d366004613bb7565b6112d9565b34801561083d575f80fd5b5061033461084c366004613361565b61131c565b6102dd61085f366004613c43565b61135e565b34801561086f575f80fd5b5061033461087e36600461367d565b6113da565b34801561088e575f80fd5b50600b546001600160a01b03166103b6565b3480156108ab575f80fd5b506040805180820190915260208082527f737570706f72743d627261766f2671756f72756d3d666f722c6162737461696e90820152610375565b3480156108f0575f80fd5b506103347ff2aad550cf55f045cb27e9c559f9889fdfb6e6cdaa032301d6ea397784ae51d781565b348015610923575f80fd5b506102dd610932366004613c82565b611413565b348015610942575f80fd5b50610334610951366004613ca5565b611424565b348015610961575f80fd5b506102dd610970366004613361565b611443565b348015610980575f80fd5b506103ed61098f366004613ccf565b611454565b34801561099f575f80fd5b506103346109ae366004613361565b611497565b3480156109be575f80fd5b507f00000000000000000000000000000000000000000000000000000000000000006103b6565b5f6109f8600b546001600160a01b031690565b905090565b5f6001600160e01b031982166366defe7760e11b1480610a2d57506001600160e01b031982166332a2ad4360e11b145b80610a4857506001600160e01b03198216630271189760e51b145b80610a6357506301ffc9a760e01b6001600160e01b03198316145b92915050565b610a71611534565b610a7a816115ad565b50565b606060038054610a8c90613d32565b80601f0160208091040260200160405190810160405280929190818152602001828054610ab890613d32565b8015610b035780601f10610ada57610100808354040283529160200191610b03565b820191905f5260205f20905b815481529060010190602001808311610ae657829003601f168201915b5050505050905090565b5f30610b176109e5565b6001600160a01b031614610b3e57604051637485328f60e11b815260040160405180910390fd5b50630a85bd0160e11b949350505050565b5f80610b5d868686866112ba565b9050610b7281610b6d6004611642565b611664565b505f610b8182888888886116a1565b905065ffffffffffff811615610bf8575f82815260046020908152604091829020600101805465ffffffffffff191665ffffffffffff85169081179091558251858152918201527f9a2e42fd6722813d69113e7d0079d3d940171428df7373df9c7f7617cfda2892910160405180910390a1610c11565b604051634844252360e11b815260040160405180910390fd5b5095945050505050565b5f80610c29868686866112ba565b9050610c4981610c396005611642565b610c436004611642565b17611664565b505f818152600460205260409020805460ff60f01b1916600160f01b17905530610c716109e5565b6001600160a01b031614610cfa575f5b8651811015610cf857306001600160a01b0316878281518110610ca657610ca6613d6a565b60200260200101516001600160a01b031603610cf057610cf0858281518110610cd157610cd1613d6a565b60200260200101518051906020012060056116af90919063ffffffff16565b600101610c81565b505b610d0781878787876116d0565b30610d106109e5565b6001600160a01b031614158015610d3c57506005546001600160801b03808216600160801b9092041614155b15610d46575f6005555b6040518181527f712ae1383f79ac853f8d882153778e0260ef8f03b504e2866e0593e04d2b291f906020015b60405180910390a195945050505050565b5f90815260046020526040902054600160a01b900465ffffffffffff1690565b5f6109f860085465ffffffffffff1690565b5f610a63826116e4565b5f80610dcd868686866112ba565b905033610dda828261181d565b610e0e57604051638fe5d8a960e01b8152600481018390526001600160a01b03821660248201526044015b60405180910390fd5b610e1a87878787611862565b979650505050505050565b60607f00000000000000000000000000000000000000000000000000000000000000006001600160a01b0316634bf5d7e96040518163ffffffff1660e01b81526004015f60405180830381865afa925050508015610ea457506040513d5f823e601f3d908101601f19168201604052610ea19190810190613d7e565b60015b610ee0575060408051808201909152601d81527f6d6f64653d626c6f636b6e756d6265722666726f6d3d64656661756c74000000602082015290565b919050565b5f818152600960205260409020805460018201546002909201549091905b9193909250565b5f80339050610f2984828560405180602001604052805f81525061186f565b949350505050565b5f610f7788888888888080601f0160208091040260200160405190810160405280939291908181526020018383808284375f920191909152508a92508991506118909050565b610f9f576040516394ab6c0760e01b81526001600160a01b0387166004820152602401610e05565b610fe288878988888080601f0160208091040260200160405190810160405280939291908181526020018383808284375f920191909152508a925061195d915050565b98975050505050505050565b5f80339050610e1a87828888888080601f0160208091040260200160405190810160405280939291908181526020018383808284375f920191909152508a925061195d915050565b5f610a63600a83611a3b565b61104a611534565b610a7a81611a88565b5f8033905061109986828787878080601f0160208091040260200160405190810160405280939291908181526020018383808284375f9201919091525061186f92505050565b9695505050505050565b5f336110af8184611aee565b6110d75760405163d9b3955760e01b81526001600160a01b0382166004820152602401610e05565b5f6110e06112cf565b9050801561114c575f61110e8360016110f76111f3565b6111019190613dfa565b65ffffffffffff16611424565b90508181101561114a57604051636121770b60e11b81526001600160a01b03841660048201526024810182905260448101839052606401610e05565b505b610e1a8787878786611b72565b5f6060805f805f606061116a611d8c565b611172611db8565b604080515f80825260208201909252600f60f81b9b939a50919850469750309650945092509050565b5f6111a885858585611de5565b6111d0576040516394ab6c0760e01b81526001600160a01b0384166004820152602401610e05565b6111ea85848660405180602001604052805f81525061186f565b95945050505050565b5f7f00000000000000000000000000000000000000000000000000000000000000006001600160a01b03166391ddadf46040518163ffffffff1660e01b8152600401602060405180830381865afa92505050801561126e575060408051601f3d908101601f1916820190925261126b91810190613e20565b60015b610ee0576109f8611e6e565b5f611286848484611e78565b90505b9392505050565b5f61129b600a611f0b565b6001600160d01b0316905090565b6112b1611534565b610a7a81611f4f565b5f6111ea858585856113da565b5f6001610a63565b5f6109f860075490565b5f306112e36109e5565b6001600160a01b03161461130a57604051637485328f60e11b815260040160405180910390fd5b5063bc197c8160e01b95945050505050565b5f8181526004602052604081205461135090600160d01b810463ffffffff1690600160a01b900465ffffffffffff16613e3b565b65ffffffffffff1692915050565b611366611534565b5f80856001600160a01b0316858585604051611383929190613e5a565b5f6040518083038185875af1925050503d805f81146113bd576040519150601f19603f3d011682016040523d82523d5f602084013e6113c2565b606091505b50915091506113d18282611fb8565b50505050505050565b5f848484846040516020016113f29493929190613ef9565b60408051601f19818403018152919052805160209091012095945050505050565b61141b611534565b610a7a81611ff5565b5f611289838361143e60408051602081019091525f815290565b611e78565b61144b611534565b610a7a81612091565b5f3061145e6109e5565b6001600160a01b03161461148557604051637485328f60e11b815260040160405180910390fd5b5063f23a6e6160e01b95945050505050565b604051632394e7a360e21b8152600481018290525f90610a63906001600160a01b037f00000000000000000000000000000000000000000000000000000000000000001690638e539e8c90602401602060405180830381865afa158015611500573d5f803e3d5ffd5b505050506040513d601f19601f820116820180604052508101906115249190613f43565b61152d84611036565b60646120d2565b3361153d6109e5565b6001600160a01b031614611566576040516347096e4760e01b8152336004820152602401610e05565b3061156f6109e5565b6001600160a01b0316146115ab575f803660405161158e929190613e5a565b604051809103902090505b806115a46005612182565b0361159957505b565b6064808211156115da5760405163243e544560e01b81526004810183905260248101829052604401610e05565b5f6115e3611290565b90506116026115f06111f3565b6115f9856121a1565b600a91906121d8565b505060408051828152602081018590527f0553476bf02ef2726e8ce5ced78d63e26e602e4a2257b1f559418e24b4633997910160405180910390a1505050565b5f81600781111561165557611655613706565b600160ff919091161b92915050565b5f8061166f84610db5565b90505f8361167c83611642565b1603611289578381846040516331b75e4d60e01b8152600401610e0593929190613f5a565b5f61109986868686866121f2565b5f6116ba8383612383565b9050806116cb576116cb60416123e8565b505050565b6116dd85858585856123f9565b5050505050565b5f806116ef83612489565b9050600581600781111561170557611705613706565b146117105792915050565b5f838152600c60205260409081902054600b549151632c258a9f60e11b81526004810182905290916001600160a01b03169063584b153e90602401602060405180830381865afa158015611766573d5f803e3d5ffd5b505050506040513d601f19601f8201168201806040525081019061178a9190613f7c565b15611799575060059392505050565b600b54604051632ab0f52960e01b8152600481018390526001600160a01b0390911690632ab0f52990602401602060405180830381865afa1580156117e0573d5f803e3d5ffd5b505050506040513d601f19601f820116820180604052508101906118049190613f7c565b15611813575060079392505050565b5060029392505050565b5f8061182884610db5565b600781111561183957611839613706565b1480156112895750505f91825260046020526040909120546001600160a01b0391821691161490565b5f6111ea858585856125ba565b5f6111ea8585858561188b60408051602081019091525f815290565b61195d565b5f610e1a856119577f3e83946653575f9a39005e1545185629e92736b7528ab20ca3816f315424a8118a8a8a6118e28c6001600160a01b03165f90815260026020526040902080546001810190915590565b8b516020808e01919091208c518d83012060405161193c98979695949301968752602087019590955260ff9390931660408601526001600160a01b03919091166060850152608084015260a083015260c082015260e00190565b60405160208183030381529060405280519060200120612651565b8461267d565b5f61196c86610b6d6001611642565b505f6119818661197b89610d83565b85611e78565b90505f61199188888885886126ed565b905083515f036119e757866001600160a01b03167fb8e138887d0aa13bab447e82de9d5c1777041ecd21ca36ba824ff1e6c07ddda4898884896040516119da9493929190613f9b565b60405180910390a2610e1a565b866001600160a01b03167fe2babfbac5889a709b63bb7f598b324e08bc5a4fb9ec647fb3cbc9ec07eb87128988848989604051611a28959493929190613fc2565b60405180910390a2979650505050505050565b5f805f611a47856127e9565b9250925050838265ffffffffffff161115611a7457611a6f611a6885612841565b8690612873565b611a76565b805b6001600160d01b031695945050505050565b6008546040805165ffffffffffff928316815291831660208301527fc565b045403dc03c2eea82b81a0465edad9e2e7fc4d97e11421c209da93d7a93910160405180910390a16008805465ffffffffffff191665ffffffffffff92909216919091179055565b80515f906034811015611b05576001915050610a63565b60131981840101516001600160b01b03198116692370726f706f7365723d60b01b14611b3657600192505050610a63565b5f80611b4686602a860386612915565b91509150811580610e1a5750866001600160a01b0316816001600160a01b031614979650505050505050565b5f611b8686868686805190602001206112ba565b905084518651141580611b9b57508351865114155b80611ba557508551155b15611bda57855184518651604051630447b05d60e41b8152600481019390935260248301919091526044820152606401610e05565b5f81815260046020526040902054600160a01b900465ffffffffffff1615611c235780611c0682610db5565b6040516331b75e4d60e01b8152610e059291905f90600401613f5a565b5f611c2c610da3565b611c346111f3565b65ffffffffffff16611c469190613ffb565b90505f611c6060085463ffffffff600160301b9091041690565b5f84815260046020526040902080546001600160a01b0319166001600160a01b038716178155909150611c9283612841565b815465ffffffffffff91909116600160a01b0265ffffffffffff60a01b19909116178155611cbf826129be565b815463ffffffff91909116600160d01b0263ffffffff60d01b1990911617815588517f7d84a6263ae0d98d3329bd7b46bb4e8d6f98cd35a7adb45c274c8b7fd5ebd5e090859087908c908c906001600160401b03811115611d2257611d226133eb565b604051908082528060200260200182016040528015611d5557816020015b6060815260200190600190039081611d405790505b508c89611d628a82613ffb565b8e604051611d789998979695949392919061400e565b60405180910390a150505095945050505050565b60606109f87f00000000000000000000000000000000000000000000000000000000000000005f6129ee565b60606109f87f000000000000000000000000000000000000000000000000000000000000000060016129ee565b5f6111ea836119577ff2aad550cf55f045cb27e9c559f9889fdfb6e6cdaa032301d6ea397784ae51d7888888611e378a6001600160a01b03165f90815260026020526040902080546001810190915590565b60408051602081019690965285019390935260ff90911660608401526001600160a01b0316608083015260a082015260c00161193c565b5f6109f843612841565b5f7f0000000000000000000000000000000000000000000000000000000000000000604051630748d63560e31b81526001600160a01b038681166004830152602482018690529190911690633a46b1a890604401602060405180830381865afa158015611ee7573d5f803e3d5ffd5b505050506040513d601f19601f820116820180604052508101906112869190613f43565b80545f908015611f4757611f3183611f246001846140e3565b5f91825260209091200190565b54600160301b90046001600160d01b0316611289565b5f9392505050565b600b54604080516001600160a01b03928316815291831660208301527f08f74ea46ef7894f65eabfb5e6e695de773a000b47c529ab559178069b226401910160405180910390a1600b80546001600160a01b0319166001600160a01b0392909216919091179055565b60608215611fc7575080610a63565b815115611fdc57611fd782612a97565b610a63565b60405163d6bda27560e01b815260040160405180910390fd5b8063ffffffff165f0361201d5760405163f1cfbf0560e01b81525f6004820152602401610e05565b6008546040805163ffffffff600160301b9093048316815291831660208301527f7e3f7f0708a84de9203036abaa450dccc85ad5ff52f78c170f3edb55cf5e8828910160405180910390a16008805463ffffffff909216600160301b0269ffffffff00000000000019909216919091179055565b60075460408051918252602082018390527fccb45da8d5717e6c4544694297c4ba5cf151d455c9bb0ed4fc7a38411bc05461910160405180910390a1600755565b5f805f6120df8686612a9f565b91509150815f03612103578381816120f9576120f96140f6565b0492505050611289565b81841161211a5761211a60038515026011186123e8565b5f848688095f868103871696879004966002600389028118808a02820302808a02820302808a02820302808a02820302808a02820302808a02909103029181900381900460010185841190960395909502919093039390930492909217029150509392505050565b5f805f61218e84612abb565b91509150816112895761128960316123e8565b5f6001600160d01b038211156121d4576040516306dfcc6560e41b815260d0600482015260248101839052604401610e05565b5090565b5f806121e5858585612b2f565b915091505b935093915050565b5f80600b5f9054906101000a90046001600160a01b03166001600160a01b031663f27a0c926040518163ffffffff1660e01b8152600401602060405180830381865afa158015612244573d5f803e3d5ffd5b505050506040513d601f19601f820116820180604052508101906122689190613f43565b90505f3060601b6bffffffffffffffffffffffff19168418600b5460405163b1c5f42760e01b81529192506001600160a01b03169063b1c5f427906122b9908a908a908a905f90889060040161410a565b602060405180830381865afa1580156122d4573d5f803e3d5ffd5b505050506040513d601f19601f820116820180604052508101906122f89190613f43565b5f898152600c602052604080822092909255600b5491516308f2a0bb60e41b81526001600160a01b0390921691638f2a0bb091612342918b918b918b919088908a90600401614157565b5f604051808303815f87803b158015612359575f80fd5b505af115801561236b573d5f803e3d5ffd5b50505050610fe2824261237e9190613ffb565b612841565b81545f906001600160801b03600160801b8204811691811660018301909116036123b0575f915050610a63565b6001600160801b038181165f908152600186810160205260409091209490945584549184018116600160801b02911617909255919050565b634e487b715f52806020526024601cfd5b600b546001600160a01b031663e38335e5348686865f3060601b6bffffffffffffffffffffffff191688186040518763ffffffff1660e01b815260040161244495949392919061410a565b5f604051808303818588803b15801561245b575f80fd5b505af115801561246d573d5f803e3d5ffd5b5050505f9687525050600c602052505060408320929092555050565b5f818152600460205260408120805460ff600160f01b8204811691600160f81b90041681156124bd57506007949350505050565b80156124ce57506002949350505050565b5f6124d886610d83565b9050805f036124fd57604051636ad0607560e01b815260048101879052602401610e05565b5f6125066111f3565b65ffffffffffff16905080821061252357505f9695505050505050565b5f61252d8861131c565b905081811061254457506001979650505050505050565b61254d88612c7f565b158061256c57505f888152600960205260409020805460019091015411155b1561257f57506003979650505050505050565b5f8881526004602052604090206001015465ffffffffffff165f036125ac57506004979650505050505050565b506005979650505050505050565b5f806125c886868686612cb5565b5f818152600c60205260409020549091508015610c1157600b5460405163c4d252f560e01b8152600481018390526001600160a01b039091169063c4d252f5906024015f604051808303815f87803b158015612622575f80fd5b505af1158015612634573d5f803e3d5ffd5b5050505f838152600c602052604081205550509050949350505050565b5f610a6361265d612d64565b8360405161190160f01b8152600281019290925260228201526042902090565b5f836001600160a01b03163b5f036126db575f8061269b8585612e8d565b5090925090505f8160038111156126b4576126b4613706565b1480156126d25750856001600160a01b0316826001600160a01b0316145b92505050611289565b6126e6848484612ed6565b9050611289565b5f8581526009602090815260408083206001600160a01b03881684526003810190925282205460ff161561273f576040516371c6af4960e01b81526001600160a01b0387166004820152602401610e05565b6001600160a01b0386165f9081526003820160205260409020805460ff1916600117905560ff85166127885783815f015f82825461277d9190613ffb565b909155506127de9050565b5f1960ff8616016127a65783816001015f82825461277d9190613ffb565b60011960ff8616016127c55783816002015f82825461277d9190613ffb565b6040516303599be160e11b815260040160405180910390fd5b509195945050505050565b80545f9081908190808203612807575f805f93509350935050610f03565b5f61281786611f246001856140e3565b546001955065ffffffffffff81169450600160301b90046001600160d01b03169250610f03915050565b5f65ffffffffffff8211156121d4576040516306dfcc6560e41b81526030600482015260248101839052604401610e05565b81545f90818160058111156128cf575f61288c84612f27565b61289690856140e3565b5f8881526020902090915081015465ffffffffffff90811690871610156128bf578091506128cd565b6128ca816001613ffb565b92505b505b5f6128dc8787858561307f565b90508015612909576128f387611f246001846140e3565b54600160301b90046001600160d01b0316610e1a565b505f9695505050505050565b5f80845183118061292557508284115b1561293457505f9050806121ea565b5f612940856001613ffb565b84118015612968575061060f60f31b61295c8787016020015190565b6001600160f01b031916145b90505f61297882151560026141ae565b612983906028613ffb565b90508061299087876140e3565b036129b1575f806129a28989896130d5565b90965094506121ea9350505050565b5f809350935050506121ea565b5f63ffffffff8211156121d4576040516306dfcc6560e41b81526020600482015260248101839052604401610e05565b606060ff8314612a0857612a0183613196565b9050610a63565b818054612a1490613d32565b80601f0160208091040260200160405190810160405280929190818152602001828054612a4090613d32565b8015612a8b5780601f10612a6257610100808354040283529160200191612a8b565b820191905f5260205f20905b815481529060010190602001808311612a6e57829003601f168201915b50505050509050610a63565b805160208201fd5b5f805f1983850993909202808410938190039390930393915050565b80545f9081906001600160801b0380821691600160801b9004168103612ae657505f93849350915050565b6001600160801b038181165f908152600186810160205260408220805492905586546fffffffffffffffffffffffffffffffff1916938101909216929092179094559293915050565b82545f9081908015612c25575f612b4b87611f246001856140e3565b805490915065ffffffffffff80821691600160301b90046001600160d01b0316908816821115612b8e57604051632520601d60e01b815260040160405180910390fd5b8765ffffffffffff168265ffffffffffff1603612bc757825465ffffffffffff16600160301b6001600160d01b03891602178355612c17565b6040805180820190915265ffffffffffff808a1682526001600160d01b03808a1660208085019182528d54600181018f555f8f81529190912094519151909216600160301b029216919091179101555b94508593506121ea92505050565b50506040805180820190915265ffffffffffff80851682526001600160d01b0380851660208085019182528854600181018a555f8a815291822095519251909316600160301b0291909316179201919091559050816121ea565b5f81815260096020526040812060028101546001820154612ca09190613ffb565b612cac6109ae85610d83565b11159392505050565b5f80612cc3868686866112ba565b9050612d1181612cd36007611642565b612cdd6006611642565b612ce76002611642565b6001612cf46007826141c5565b612cff9060026142be565b612d0991906140e3565b181818611664565b505f818152600460205260409081902080546001600160f81b0316600160f81b179055517f789cf55be980739dad1d0699b93b58e806b51c9d96619bfa8fe0a28abaa7b30c90610d729083815260200190565b5f306001600160a01b037f000000000000000000000000000000000000000000000000000000000000000016148015612dbc57507f000000000000000000000000000000000000000000000000000000000000000046145b15612de657507f000000000000000000000000000000000000000000000000000000000000000090565b6109f8604080517f8b73c3c69bb8fe3d512ecc4cf759cc79239f7b179b0ffacaa9a75d522b39400f60208201527f0000000000000000000000000000000000000000000000000000000000000000918101919091527f000000000000000000000000000000000000000000000000000000000000000060608201524660808201523060a08201525f9060c00160405160208183030381529060405280519060200120905090565b5f805f8351604103612ec4576020840151604085015160608601515f1a612eb6888285856131d3565b955095509550505050612ecf565b505081515f91506002905b9250925092565b805160408051630b135d3f60e11b8082526004820186905260248201929092525f92906020820185604483015e60205f60648401838a5afa9050825f5114601f3d1116811693505050509392505050565b5f60018211612f34575090565b816001600160801b8210612f4d5760809190911c9060401b5b680100000000000000008210612f685760409190911c9060201b5b6401000000008210612f7f5760209190911c9060101b5b620100008210612f945760109190911c9060081b5b6101008210612fa85760089190911c9060041b5b60108210612fbb5760049190911c9060021b5b60048210612fc75760011b5b600302600190811c90818581612fdf57612fdf6140f6565b048201901c90506001818581612ff757612ff76140f6565b048201901c9050600181858161300f5761300f6140f6565b048201901c90506001818581613027576130276140f6565b048201901c9050600181858161303f5761303f6140f6565b048201901c90506001818581613057576130576140f6565b048201901c9050613076818581613070576130706140f6565b04821190565b90039392505050565b5f5b818310156130cd575f85815260209020838316600285851804019081015465ffffffffffff868116911611156130b9578092506130c7565b6130c4816001613ffb565b93505b50613081565b509392505050565b5f8084816130e4866001613ffb565b8511801561310c575061060f60f31b6131008388016020015190565b6001600160f01b031916145b90505f61311c82151560026141ae565b90505f8061312a838a613ffb565b90505b87811015613185575f61314b6131468784016020015190565b61329b565b9050600f8160ff16111561316a575f80975097505050505050506121ea565b6131756010846141ae565b60ff90911601915060010161312d565b506001999098509650505050505050565b60605f6131a283613313565b6040805160208082528183019092529192505f91906020820181803683375050509182525060208101929092525090565b5f80807f7fffffffffffffffffffffffffffffff5d576e7357a4501ddfe92f46681b20a084111561320c57505f91506003905082613291565b604080515f808252602082018084528a905260ff891692820192909252606081018790526080810186905260019060a0016020604051602081039080840390855afa15801561325d573d5f803e3d5ffd5b5050604051601f1901519150506001600160a01b03811661328857505f925060019150829050613291565b92505f91508190505b9450945094915050565b5f60f882901c602f811180156132b45750603a8160ff16105b156132c257602f1901610a63565b60608160ff161180156132d8575060678160ff16105b156132e65760561901610a63565b60408160ff161180156132fc575060478160ff16105b1561330a5760361901610a63565b5060ff92915050565b5f60ff8216601f811115610a6357604051632cd44ac360e21b815260040160405180910390fd5b5f6020828403121561334a575f80fd5b81356001600160e01b031981168114611289575f80fd5b5f60208284031215613371575f80fd5b5035919050565b5f5b8381101561339257818101518382015260200161337a565b50505f910152565b5f81518084526133b1816020860160208601613378565b601f01601f19169290920160200192915050565b602081525f611289602083018461339a565b6001600160a01b0381168114610a7a575f80fd5b634e487b7160e01b5f52604160045260245ffd5b604051601f8201601f191681016001600160401b0381118282101715613427576134276133eb565b604052919050565b5f6001600160401b03821115613447576134476133eb565b50601f01601f191660200190565b5f6134676134628461342f565b6133ff565b905082815283838301111561347a575f80fd5b828260208301375f602084830101529392505050565b5f82601f83011261349f575f80fd5b61128983833560208501613455565b5f805f80608085870312156134c1575f80fd5b84356134cc816133d7565b935060208501356134dc816133d7565b92506040850135915060608501356001600160401b038111156134fd575f80fd5b61350987828801613490565b91505092959194509250565b5f6001600160401b0382111561352d5761352d6133eb565b5060051b60200190565b5f82601f830112613546575f80fd5b8135602061355661346283613515565b8083825260208201915060208460051b870101935086841115613577575f80fd5b602086015b8481101561359c57803561358f816133d7565b835291830191830161357c565b509695505050505050565b5f82601f8301126135b6575f80fd5b813560206135c661346283613515565b8083825260208201915060208460051b8701019350868411156135e7575f80fd5b602086015b8481101561359c57803583529183019183016135ec565b5f82601f830112613612575f80fd5b8135602061362261346283613515565b82815260059290921b84018101918181019086841115613640575f80fd5b8286015b8481101561359c5780356001600160401b03811115613661575f80fd5b61366f8986838b0101613490565b845250918301918301613644565b5f805f8060808587031215613690575f80fd5b84356001600160401b03808211156136a6575f80fd5b6136b288838901613537565b955060208701359150808211156136c7575f80fd5b6136d3888389016135a7565b945060408701359150808211156136e8575f80fd5b506136f587828801613603565b949793965093946060013593505050565b634e487b7160e01b5f52602160045260245ffd5b6008811061373657634e487b7160e01b5f52602160045260245ffd5b9052565b60208101610a63828461371a565b5f8060408385031215613759575f80fd5b82359150602083013561376b816133d7565b809150509250929050565b803560ff81168114610ee0575f80fd5b5f8060408385031215613797575f80fd5b823591506137a760208401613776565b90509250929050565b5f8083601f8401126137c0575f80fd5b5081356001600160401b038111156137d6575f80fd5b6020830191508360208285010111156137ed575f80fd5b9250929050565b5f805f805f805f60c0888a03121561380a575f80fd5b8735965061381a60208901613776565b9550604088013561382a816133d7565b945060608801356001600160401b0380821115613845575f80fd5b6138518b838c016137b0565b909650945060808a0135915080821115613869575f80fd5b6138758b838c01613490565b935060a08a013591508082111561388a575f80fd5b506138978a828b01613490565b91505092959891949750929550565b5f805f805f608086880312156138ba575f80fd5b853594506138ca60208701613776565b935060408601356001600160401b03808211156138e5575f80fd5b6138f189838a016137b0565b90955093506060880135915080821115613909575f80fd5b5061391688828901613490565b9150509295509295909350565b65ffffffffffff81168114610a7a575f80fd5b5f60208284031215613946575f80fd5b813561128981613923565b5f805f8060608587031215613964575f80fd5b8435935061397460208601613776565b925060408501356001600160401b0381111561398e575f80fd5b61399a878288016137b0565b95989497509550505050565b5f805f80608085870312156139b9575f80fd5b84356001600160401b03808211156139cf575f80fd5b6139db88838901613537565b955060208701359150808211156139f0575f80fd5b6139fc888389016135a7565b94506040870135915080821115613a11575f80fd5b613a1d88838901613603565b93506060870135915080821115613a32575f80fd5b508501601f81018713613a43575f80fd5b61350987823560208401613455565b5f60208284031215613a62575f80fd5b8135611289816133d7565b5f815180845260208085019450602084015f5b83811015613a9c57815187529582019590820190600101613a80565b509495945050505050565b60ff60f81b8816815260e060208201525f613ac560e083018961339a565b8281036040840152613ad7818961339a565b606084018890526001600160a01b038716608085015260a0840186905283810360c08501529050613b088185613a6d565b9a9950505050505050505050565b5f805f8060808587031215613b29575f80fd5b84359350613b3960208601613776565b92506040850135613b49816133d7565b915060608501356001600160401b038111156134fd575f80fd5b5f805f60608486031215613b75575f80fd5b8335613b80816133d7565b92506020840135915060408401356001600160401b03811115613ba1575f80fd5b613bad86828701613490565b9150509250925092565b5f805f805f60a08688031215613bcb575f80fd5b8535613bd6816133d7565b94506020860135613be6816133d7565b935060408601356001600160401b0380821115613c01575f80fd5b613c0d89838a016135a7565b94506060880135915080821115613c22575f80fd5b613c2e89838a016135a7565b93506080880135915080821115613909575f80fd5b5f805f8060608587031215613c56575f80fd5b8435613c61816133d7565b93506020850135925060408501356001600160401b0381111561398e575f80fd5b5f60208284031215613c92575f80fd5b813563ffffffff81168114611289575f80fd5b5f8060408385031215613cb6575f80fd5b8235613cc1816133d7565b946020939093013593505050565b5f805f805f60a08688031215613ce3575f80fd5b8535613cee816133d7565b94506020860135613cfe816133d7565b9350604086013592506060860135915060808601356001600160401b03811115613d26575f80fd5b61391688828901613490565b600181811c90821680613d4657607f821691505b602082108103613d6457634e487b7160e01b5f52602260045260245ffd5b50919050565b634e487b7160e01b5f52603260045260245ffd5b5f60208284031215613d8e575f80fd5b81516001600160401b03811115613da3575f80fd5b8201601f81018413613db3575f80fd5b8051613dc16134628261342f565b818152856020838501011115613dd5575f80fd5b6111ea826020830160208601613378565b634e487b7160e01b5f52601160045260245ffd5b65ffffffffffff828116828216039080821115613e1957613e19613de6565b5092915050565b5f60208284031215613e30575f80fd5b815161128981613923565b65ffffffffffff818116838216019080821115613e1957613e19613de6565b818382375f9101908152919050565b5f815180845260208085019450602084015f5b83811015613a9c5781516001600160a01b031687529582019590820190600101613e7c565b5f8282518085526020808601955060208260051b840101602086015f5b84811015613eec57601f19868403018952613eda83835161339a565b98840198925090830190600101613ebe565b5090979650505050505050565b608081525f613f0b6080830187613e69565b8281036020840152613f1d8187613a6d565b90508281036040840152613f318186613ea1565b91505082606083015295945050505050565b5f60208284031215613f53575f80fd5b5051919050565b83815260608101613f6e602083018561371a565b826040830152949350505050565b5f60208284031215613f8c575f80fd5b81518015158114611289575f80fd5b84815260ff84166020820152826040820152608060608201525f611099608083018461339a565b85815260ff8516602082015283604082015260a060608201525f613fe960a083018561339a565b8281036080840152610fe2818561339a565b80820180821115610a6357610a63613de6565b5f6101208b8352602060018060a01b038c16818501528160408501526140368285018c613e69565b9150838203606085015261404a828b613a6d565b915083820360808501528189518084528284019150828160051b850101838c015f5b8381101561409a57601f1987840301855261408883835161339a565b9486019492509085019060010161406c565b505086810360a08801526140ae818c613ea1565b9450505050508560c08401528460e08401528281036101008401526140d3818561339a565b9c9b505050505050505050505050565b81810381811115610a6357610a63613de6565b634e487b7160e01b5f52601260045260245ffd5b60a081525f61411c60a0830188613e69565b828103602084015261412e8188613a6d565b905082810360408401526141428187613ea1565b60608401959095525050608001529392505050565b60c081525f61416960c0830189613e69565b828103602084015261417b8189613a6d565b9050828103604084015261418f8188613ea1565b60608401969096525050608081019290925260a0909101529392505050565b8082028115828204841417610a6357610a63613de6565b60ff8181168382160190811115610a6357610a63613de6565b600181815b8085111561421857815f19048211156141fe576141fe613de6565b8085161561420b57918102915b93841c93908002906141e3565b509250929050565b5f8261422e57506001610a63565b8161423a57505f610a63565b8160018114614250576002811461425a57614276565b6001915050610a63565b60ff84111561426b5761426b613de6565b50506001821b610a63565b5060208310610133831016604e8410600b8410161715614299575081810a610a63565b6142a383836141de565b805f19048211156142b6576142b6613de6565b029392505050565b5f61128960ff84168361422056fea2646970667358221220792ba4a37ae47eaf04c9c71424b04e5ced09e50e5febadc1b3c8b8d192cfd49664736f6c63430008180033",
  "linkReferences": {},
  "deployedLinkReferences": {}
}