{
  "_format": "hh-sol-artifact-1",
  "contractName": "FeeSettings",
  "sourceName": "contracts/FeeSettings.sol",
  "abi": [
    {
      "inputs": [
        {
          "internalType": "address",
          "name": "timelock",
          "type": "address"
        },
        {
          "internalType": "uint256",
          "name": "initialFeeBps",
          "type": "uint256"
        }
      ],
      "stateMutability": "nonpayable",
      "type": "constructor"
    },
    {
      "inputs": [
        {
          "internalType": "address",
          "name": "owner",
          "type": "address"
        }
      ],
      "name": "OwnableInvalidOwner",
      "type": "error"
    },
    {
      "inputs": [
        {
          "internalType": "address",
          "name": "account",
          "type": "address"
        }
      ],
      "name": "OwnableUnauthorizedAccount",
      "type": "error"
    },
    {
      "anonymous": false,
      "inputs": [
        {
          "indexed": false,
          "internalType": "uint256",
          "name": "oldFeeBps",
          "type": "uint256"
        },
        {
          "indexed": false,
          "internalType": "uint256",
          "name": "newFeeBps",
          "type": "uint256"
        }
      ],
      "name": "FeeChanged",
      "type": "event"
    },
    {
      "anonymous": false,
      "inputs": [
        {
          "indexed": true,
          "internalType": "address",
          "name": "previousOwner",
          "type": "address"
        },
        {
          "indexed": true,
          "internalType": "address",
          "name": "newOwner",
          "type": "address"
        }
      ],
      "name": "OwnershipTransferred",
      "type": "event"
    },
    {
      "inputs": [],
      "name": "MAX_FEE_BPS",
      "outputs": [
        {
          "internalType": "uint256",
          "name": "",
          "type": "uint256"
        }
      ],
      "stateMutability": "view",
      "type": "function"
    },
    {
      "inputs": [],
      "name": "feeBps",
      "outputs": [
        {
          "internalType": "uint256",
          "name": "",
          "type": "uint256"
        }
      ],
      "stateMutability": "view",
      "type": "function"
    },
    {
      "inputs": [],
      "name": "owner",
      "outputs": [
        {
          "internalType": "address",
          "name": "",
          "type": "address"
        }
      ],
      "stateMutability": "view",
      "type": "function"
    },
    {
      "inputs": [],
      "name": "renounceOwnership",
      "outputs": [],
      "stateMutability": "nonpayable",
      "type": "function"
    },
    {
      "inputs": [
        {
          "internalType": "uint256",
          "name": "newFeeBps",
          "type": "uint256"
        }
      ],
      "name": "setFeeBps",
      "outputs": [],
      "stateMutability": "nonpayable",
      "type": "function"
    },
    {
      "inputs": [
        {
          "internalType": "address",
          "name": "newOwner",
          "type": "address"
        }
      ],
      "name": "transferOwnership",
      "outputs": [],
      "stateMutability": "nonpayable",
      "type": "function"
    }
  ],
  "bytecode": "0x608060405234801561000f575f80fd5b5060405161043538038061043583398101604081905261002e91610146565b816001600160a01b03811661005d57604051631e4fbdf760e01b81525f60048201526024015b60405180910390fd5b610066816100f7565b506001600160a01b0382166100ad5760405162461bcd60e51b815260206004820152600d60248201526c74696d656c6f636b207a65726f60981b6044820152606401610054565b6103e88111156100ee5760405162461bcd60e51b815260206004820152600c60248201526b0cccaca40e8dede40d0d2ced60a31b6044820152606401610054565b6001555061017d565b5f80546001600160a01b038381166001600160a01b0319831681178455604051919092169283917f8be0079c531659141344cd1fd0a4f28419497f9722a3daafe3b4186f6b6457e09190a35050565b5f8060408385031215610157575f80fd5b82516001600160a01b038116811461016d575f80fd5b6020939093015192949293505050565b6102ab8061018a5f395ff3fe608060405234801561000f575f80fd5b5060043610610060575f3560e01c806324a9d85314610064578063715018a61461008057806372c27b621461008a5780638da5cb5b1461009d578063d55be8c6146100b7578063f2fde38b146100c0575b5f80fd5b61006d60015481565b6040519081526020015b60405180910390f35b6100886100d3565b005b610088610098366004610231565b6100e6565b5f546040516001600160a01b039091168152602001610077565b61006d6103e881565b6100886100ce366004610248565b610179565b6100db6101b6565b6100e45f6101e2565b565b6100ee6101b6565b6103e88111156101345760405162461bcd60e51b815260206004820152600c60248201526b0cccaca40e8dede40d0d2ced60a31b60448201526064015b60405180910390fd5b600180549082905560408051828152602081018490527f5fc463da23c1b063e66f9e352006a7fbe8db7223c455dc429e881a2dfe2f94f1910160405180910390a15050565b6101816101b6565b6001600160a01b0381166101aa57604051631e4fbdf760e01b81525f600482015260240161012b565b6101b3816101e2565b50565b5f546001600160a01b031633146100e45760405163118cdaa760e01b815233600482015260240161012b565b5f80546001600160a01b038381166001600160a01b0319831681178455604051919092169283917f8be0079c531659141344cd1fd0a4f28419497f9722a3daafe3b4186f6b6457e09190a35050565b5f60208284031215610241575f80fd5b5035919050565b5f60208284031215610258575f80fd5b81356001600160a01b038116811461026e575f80fd5b939250505056fea2646970667358221220ef2a488125e7e2441c6c2cda3ea9b6f8a17ffaeee79dd5980408cfc43c3d6b2064736f6c63430008180033",
  "linkReferences": {},
  "deployedLinkReferences": {}
}