{
  "_format": "hh-sol-artifact-1",
  "contractName": "GovernanceToken",
  "sourceName": "contracts/GovernanceToken.sol",
  "abi": [
    {
      "inputs": [
        {
          "internalType": "address",
          "name": "teamWallet",
          "type": "address"
        },
        {
          "internalType": "address",
          "name": "treasuryWallet",
          "type": "address"
        },
        {
          "internalType": "address",
          "name": "communityWallet",
          "type": "address"
        },
        {
          "internalType": "address",
          "name": "liquidityWallet",
          "type": "address"
        }
      ],
      "stateMutability": "nonpayable",
      "type": "constructor"
    },
    {
      "inputs": [],
      "name": "CheckpointUnorderedInsertion",
      "type": "error"
    },
    {
      "inputs": [],
      "name": "ECDSAInvalidSignature",
      "type": "error"
    },
    {
      "inputs": [
        {
          "internalType": "uint256",
          "name": "length",
          "type": "uint256"
        }
      ],
      "name": "ECDSAInvalidSignatureLength",
      "type": "error"
    },
    {
      "inputs": [
        {
          "internalType": "bytes32",
          "name": "s",
          "type": "bytes32"
        }
      ],
      "name": "ECDSAInvalidSignatureS",
      "type": "error"
    },
    {
      "inputs": [
        {
          "internalType": "uint256",
          "name": "increasedSupply",
          "type": "uint256"
        },
        {
          "internalType": "uint256",
          "name": "cap",
          "type": "uint256"
        }
      ],
      "name": "ERC20ExceededSafeSupply",
      "type": "error"
    },
    {
      "inputs": [
        {
          "internalType": "address",
          "name": "spender",
          "type": "address"
        },
        {
          "internalType": "uint256",
          "name": "allowance",
          "type": "uint256"
        },
        {
          "internalType": "uint256",
          "name": "needed",
          "type": "uint256"
        }
      ],
      "name": "ERC20InsufficientAllowance",
      "type": "error"
    },
    {
      "inputs": [
        {
          "internalType": "address",
          "name": "sender",
          "type": "address"
        },
        {
          "internalType": "uint256",
          "name": "balance",
          "type": "uint256"
        },
        {
          "internalType": "uint256",
          "name": "needed",
          "type": "uint256"
        }
      ],
      "name": "ERC20InsufficientBalance",
      "type": "error"
    },
    {
      "inputs": [
        {
          "internalType": "address",
          "name": "approver",
          "type": "address"
        }
      ],
      "name": "ERC20InvalidApprover",
      "type": "error"
    },
    {
      "inputs": [
        {
          "internalType": "address",
          "name": "receiver",
          "type": "address"
        }
      ],
      "name": "ERC20InvalidReceiver",
      "type": "error"
    },
    {
      "inputs": [
        {
          "internalType": "address",
          "name": "sender",
          "type": "address"
        }
      ],
      "name": "ERC20InvalidSender",
      "type": "error"
    },
    {
      "inputs": [
        {
          "internalType": "address",
          "name": "spender",
          "type": "address"
        }
      ],
      "name": "ERC20InvalidSpender",
      "type": "error"
    },
    {
      "inputs": [
        {
          "internalType": "uint256",
          "name": "deadline",
          "type": "uint256"
        }
      ],
      "name": "ERC2612ExpiredSignature",
      "type": "error"
    },
    {
      "inputs": [
        {
          "internalType": "address",
          "name": "signer",
          "type": "address"
        },
        {
          "internalType": "address",
          "name": "owner",
          "type": "address"
        }
      ],
      "name": "ERC2612InvalidSigner",
      "type": "error"
    },
    {
      "inputs": [
        {
          "internalType": "uint256",
          "name": "timepoint",
          "type": "uint256"
        },
        {
          "internalType": "uint48",
          "name": "clock",
          "type": "uint48"
        }
      ],
      "name": "ERC5805FutureLookup",
      "type": "error"
    },
    {
      "inputs": [],
      "name": "ERC6372InconsistentClock",
      "type": "error"
    },
    {
      "inputs": [
        {
          "internalType": "address",
          "name": "account",
          "type": "address"
        },
        {
          "internalType": "uint256",
          "name": "currentNonce",
          "type": "uint256"
        }
      ],
      "name": "InvalidAccountNonce",
      "type": "error"
    },
    {
      "inputs": [],
      "name": "InvalidShortString",
      "type": "error"
    },
    {
      "inputs": [
        {
          "internalType": "address",
          "name": "owner",
          "type": "address"
        }
      ],
      "name": "OwnableInvalidOwner",
      "type": "error"
    },
    {
      "inputs": [
        {
          "internalType": "address",
          "name": "account",
          "type": "address"
        }
      ],
      "name": "OwnableUnauthorizedAccount",
      "type": "error"
    },
    {
      "inputs": [
        {
          "internalType": "uint8",
          "name": "bits",
          "type": "uint8"
        },
        {
          "internalType": "uint256",
          "name": "value",
          "type": "uint256"
        }
      ],
      "name": "SafeCastOverflowedUintDowncast",
      "type": "error"
    },
    {
      "inputs": [
        {
          "internalType": "string",
          "name": "str",
          "type": "string"
        }
      ],
      "name": "StringTooLong",
      "type": "error"
    },
    {
      "inputs": [
        {
          "internalType": "uint256",
          "name": "expiry",
          "type": "uint256"
        }
      ],
      "name": "VotesExpiredSignature",
      "type": "error"
    },
    {
      "anonymous": false,
      "inputs": [
        {
          "indexed": true,
          "internalType": "address",
          "name": "owner",
          "type": "address"
        },
        {
          "indexed": true,
          "internalType": "address",
          "name": "spender",
          "type": "address"
        },
        {
          "indexed": false,
          "internalType": "uint256",
          "name": "value",
          "type": "uint256"
        }
      ],
      "name": "Approval",
      "type": "event"
    },
    {
      "anonymous": false,
      "inputs": [
        {
          "indexed": true,
          "internalType": "address",
          "name": "delegator",
          "type": "address"
        },
        {
          "indexed": true,
          "internalType": "address",
          "name": "fromDelegate",
          "type": "address"
        },
        {
          "indexed": true,
          "internalType": "address",
          "name": "toDelegate",
          "type": "address"
        }
      ],
      "name": "DelegateChanged",
      "type": "event"
    },
    {
      "anonymous": false,
      "inputs": [
        {
          "indexed": true,
          "internalType": "address",
          "name": "delegate",
          "type": "address"
        },
        {
          "indexed": false,
          "internalType": "uint256",
          "name": "previousVotes",
          "type": "uint256"
        },
        {
          "indexed": false,
          "internalType": "uint256",
          "name": "newVotes",
          "type": "uint256"
        }
      ],
      "name": "DelegateVotesChanged",
      "type": "event"
    },
    {
      "anonymous": false,
      "inputs": [],
      "name": "EIP712DomainChanged",
      "type": "event"
    },
    {
      "anonymous": false,
      "inputs": [
        {
          "indexed": true,
          "internalType": "address",
          "name": "previousOwner",
          "type": "address"
        },
        {
          "indexed": true,
          "internalType": "address",
          "name": "newOwner",
          "type": "address"
        }
      ],
      "name": "OwnershipTransferred",
      "type": "event"
    },
    {
      "anonymous": false,
      "inputs": [
        {
          "indexed": true,
          "internalType": "address",
          "name": "from",
          "type": "address"
        },
        {
          "indexed": true,
          "internalType": "address",
          "name": "to",
          "type": "address"
        },
        {
          "indexed": false,
          "internalType": "uint256",
          "name": "value",
          "type": "uint256"
        }
      ],
      "name": "Transfer",
      "type": "event"
    },
    {
      "inputs": [],
      "name": "CLOCK_MODE",
      "outputs": [
        {
          "internalType": "string",
          "name": "",
          "type": "string"
        }
      ],
      "stateMutability": "view",
      "type": "function"
    },
    {
      "inputs": [],
      "name": "DOMAIN_SEPARATOR",
      "outputs": [
        {
          "internalType": "bytes32",
          "name": "",
          "type": "bytes32"
        }
      ],
      "stateMutability": "view",
      "type": "function"
    },
    {
      "inputs": [],
      "name": "INITIAL_SUPPLY",
      "outputs": [
        {
          "internalType": "uint256",
          "name": "",
          "type": "uint256"
        }
      ],
      "stateMutability": "view",
      "type": "function"
    },
    {
      "inputs": [
        {
          "internalType": "address",
          "name": "owner",
          "type": "address"
        },
        {
          "internalType": "address",
          "name": "spender",
          "type": "address"
        }
      ],
      "name": "allowance",
      "outputs": [
        {
          "internalType": "uint256",
          "name": "",
          "type": "uint256"
        }
      ],
      "stateMutability": "view",
      "type": "function"
    },
    {
      "inputs": [
        {
          "internalType": "address",
          "name": "spender",
          "type": "address"
        },
        {
          "internalType": "uint256",
          "name": "value",
          "type": "uint256"
        }
      ],
      "name": "approve",
      "outputs": [
        {
          "internalType": "bool",
          "name": "",
          "type": "bool"
        }
      ],
      "stateMutability": "nonpayable",
      "type": "function"
    },
    {
      "inputs": [
        {
          "internalType": "address",
          "name": "account",
          "type": "address"
        }
      ],
      "name": "balanceOf",
      "outputs": [
        {
          "internalType": "uint256",
          "name": "",
          "type": "uint256"
        }
      ],
      "stateMutability": "view",
      "type": "function"
    },
    {
      "inputs": [
        {
          "internalType": "address",
          "name": "account",
          "type": "address"
        },
        {
          "internalType": "uint32",
          "name": "pos",
          "type": "uint32"
        }
      ],
      "name": "checkpoints",
      "outputs": [
        {
          "components": [
            {
              "internalType": "uint48",
              "name": "_key",
              "type": "uint48"
            },
            {
              "internalType": "uint208",
              "name": "_value",
              "type": "uint208"
            }
          ],
          "internalType": "struct Checkpoints.Checkpoint208",
          "name": "",
          "type": "tuple"
        }
      ],
      "stateMutability": "view",
      "type": "function"
    },
    {
      "inputs": [],
      "name": "clock",
      "outputs": [
        {
          "internalType": "uint48",
          "name": "",
          "type": "uint48"
        }
      ],
      "stateMutability": "view",
      "type": "function"
    },
    {
      "inputs": [],
      "name": "decimals",
      "outputs": [
        {
          "internalType": "uint8",
          "name": "",
          "type": "uint8"
        }
      ],
      "stateMutability": "view",
      "type": "function"
    },
    {
      "inputs": [
        {
          "internalType": "address",
          "name": "delegatee",
          "type": "address"
        }
      ],
      "name": "delegate",
      "outputs": [],
      "stateMutability": "nonpayable",
      "type": "function"
    },
    {
      "inputs": [
        {
          "internalType": "address",
          "name": "delegatee",
          "type": "address"
        },
        {
          "internalType": "uint256",
          "name": "nonce",
          "type": "uint256"
        },
        {
          "internalType": "uint256",
          "name": "expiry",
          "type": "uint256"
        },
        {
          "internalType": "uint8",
          "name": "v",
          "type": "uint8"
        },
        {
          "internalType": "bytes32",
          "name": "r",
          "type": "bytes32"
        },
        {
          "internalType": "bytes32",
          "name": "s",
          "type": "bytes32"
        }
      ],
      "name": "delegateBySig",
      "outputs": [],
      "stateMutability": "nonpayable",
      "type": "function"
    },
    {
      "inputs": [
        {
          "internalType": "address",
          "name": "account",
          "type": "address"
        }
      ],
      "name": "delegates",
      "outputs": [
        {
          "internalType": "address",
          "name": "",
          "type": "address"
        }
      ],
      "stateMutability": "view",
      "type": "function"
    },
    {
      "inputs": [],
      "name": "eip712Domain",
      "outputs": [
        {
          "internalType": "bytes1",
          "name": "fields",
          "type": "bytes1"
        },
        {
          "internalType": "string",
          "name": "name",
          "type": "string"
        },
        {
          "internalType": "string",
          "name": "version",
          "type": "string"
        },
        {
          "internalType": "uint256",
          "name": "chainId",
          "type": "uint256"
        },
        {
          "internalType": "address",
          "name": "verifyingContract",
          "type": "address"
        },
        {
          "internalType": "bytes32",
          "name": "salt",
          "type": "bytes32"
        },
        {
          "internalType": "uint256[]",
          "name": "extensions",
          "type": "uint256[]"
        }
      ],
      "stateMutability": "view",
      "type": "function"
    },
    {
      "inputs": [
        {
          "internalType": "uint256",
          "name": "timepoint",
          "type": "uint256"
        }
      ],
      "name": "getPastTotalSupply",
      "outputs": [
        {
          "internalType": "uint256",
          "name": "",
          "type": "uint256"
        }
      ],
      "stateMutability": "view",
      "type": "function"
    },
    {
      "inputs": [
        {
          "internalType": "address",
          "name": "account",
          "type": "address"
        },
        {
          "internalType": "uint256",
          "name": "timepoint",
          "type": "uint256"
        }
      ],
      "name": "getPastVotes",
      "outputs": [
        {
          "internalType": "uint256",
          "name": "",
          "type": "uint256"
        }
      ],
      "stateMutability": "view",
      "type": "function"
    },
    {
      "inputs": [
        {
          "internalType": "address",
          "name": "account",
          "type": "address"
        }
      ],
      "name": "getVotes",
      "outputs": [
        {
          "internalType": "uint256",
          "name": "",
          "type": "uint256"
        }
      ],
      "stateMutability": "view",
      "type": "function"
    },
    {
      "inputs": [
        {
          "internalType": "address",
          "name": "to",
          "type": "address"
        },
        {
          "internalType": "uint256",
          "name": "amount",
          "type": "uint256"
        }
      ],
      "name": "mint",
      "outputs": [],
      "stateMutability": "nonpayable",
      "type": "function"
    },
    {
      "inputs": [],
      "name": "name",
      "outputs": [
        {
          "internalType": "string",
          "name": "",
          "type": "string"
        }
      ],
      "stateMutability": "view",
      "type": "function"
    },
    {
      "inputs": [
        {
          "internalType": "address",
          "name": "owner",
          "type": "address"
        }
      ],
      "name": "nonces",
      "outputs": [
        {
          "internalType": "uint256",
          "name": "",
          "type": "uint256"
        }
      ],
      "stateMutability": "view",
      "type": "function"
    },
    {
      "inputs": [
        {
          "internalType": "address",
          "name": "account",
          "type": "address"
        }
      ],
      "name": "numCheckpoints",
      "outputs": [
        {
          "internalType": "uint32",
          "name": "",
          "type": "uint32"
        }
      ],
      "stateMutability": "view",
      "type": "function"
    },
    {
      "inputs": [],
      "name": "owner",
      "outputs": [
        {
          "internalType": "address",
          "name": "",
          "type": "address"
        }
      ],
      "stateMutability": "view",
      "type": "function"
    },
    {
      "inputs": [
        {
          "internalType": "address",
          "name": "owner",
          "type": "address"
        },
        {
          "internalType": "address",
          "name": "spender",
          "type": "address"
        },
        {
          "internalType": "uint256",
          "name": "value",
          "type": "uint256"
        },
        {
          "internalType": "uint256",
          "name": "deadline",
          "type": "uint256"
        },
        {
          "internalType": "uint8",
          "name": "v",
          "type": "uint8"
        },
        {
          "internalType": "bytes32",
          "name": "r",
          "type": "bytes32"
        },
        {
          "internalType": "bytes32",
          "name": "s",
          "type": "bytes32"
        }
      ],
      "name": "permit",
      "outputs": [],
      "stateMutability": "nonpayable",
      "type": "function"
    },
    {
      "inputs": [],
      "name": "renounceOwnership",
      "outputs": [],
      "stateMutability": "nonpayable",
      "type": "function"
    },
    {
      "inputs": [],
      "name": "symbol",
      "outputs": [
        {
          "internalType": "string",
          "name": "",
          "type": "string"
        }
      ],
      "stateMutability": "view",
      "type": "function"
    },
    {
      "inputs": [],
      "name": "totalSupply",
      "outputs": [
        {
          "internalType": "uint256",
          "name": "",
          "type": "uint256"
        }
      ],
      "stateMutability": "view",
      "type": "function"
    },
    {
      "inputs": [
        {
          "internalType": "address",
          "name": "to",
          "type": "address"
        },
        {
          "internalType": "uint256",
          "name": "value",
          "type": "uint256"
        }
      ],
      "name": "transfer",
      "outputs": [
        {
          "internalType": "bool",
          "name": "",
          "type": "bool"
        }
      ],
      "stateMutability": "nonpayable",
      "type": "function"
    },
    {
      "inputs": [
        {
          "internalType": "address",
          "name": "from",
          "type": "address"
        },
        {
          "internalType": "address",
          "name": "to",
          "type": "address"
        },
        {
          "internalType": "uint256",
          "name": "value",
          "type": "uint256"
        }
      ],
      "name": "transferFrom",
      "outputs": [
        {
          "internalType": "bool",
          "name": "",
          "type": "bool"
        }
      ],
      "stateMutability": "nonpayable",
      "type": "function"
    },
    {
      "inputs": [
        {
          "internalType": "address",
          "name": "newOwner",
          "type": "address"
        }
      ],
      "name": "transferOwnership",
      "outputs": [],
      "stateMutability": "nonpayable",
      "type": "function"
    }
  ],
  "bytecode": "0x61016060405234801562000011575f80fd5b5060405162002d3b38038062002d3b833981016040819052620000349162000b46565b336040518060400160405280601f81526020017f4661726d657273204d61726b657420476f7665726e616e636520546f6b656e0081525080604051806040016040528060018152602001603160f81b8152506040518060400160405280601f81526020017f4661726d657273204d61726b657420476f7665726e616e636520546f6b656e0081525060405180604001604052806004815260200163119351d560e21b8152508160039081620000ea919062000c3d565b506004620000f9828262000c3d565b506200010b91508390506005620003d5565b610120526200011c816006620003d5565b61014052815160208084019190912060e052815190820120610100524660a052620001a960e05161010051604080517f8b73c3c69bb8fe3d512ecc4cf759cc79239f7b179b0ffacaa9a75d522b39400f60208201529081019290925260608201524660808201523060a08201525f9060c00160405160208183030381529060405280519060200120905090565b60805250503060c052506001600160a01b038116620001e257604051631e4fbdf760e01b81525f60048201526024015b60405180910390fd5b620001ed816200040d565b506001600160a01b038416620002395760405162461bcd60e51b815260206004820152601060248201526f7465616d2077616c6c6574207a65726f60801b6044820152606401620001d9565b6001600160a01b038316620002915760405162461bcd60e51b815260206004820152601460248201527f74726561737572792077616c6c6574207a65726f0000000000000000000000006044820152606401620001d9565b6001600160a01b038216620002e95760405162461bcd60e51b815260206004820152601560248201527f636f6d6d756e6974792077616c6c6574207a65726f00000000000000000000006044820152606401620001d9565b6001600160a01b038116620003415760405162461bcd60e51b815260206004820152601560248201527f6c69717569646974792077616c6c6574207a65726f00000000000000000000006044820152606401620001d9565b620003718460646200035f69d3c21bcecceda1000000602862000d1d565b6200036b919062000d37565b6200045e565b6200038f8360646200035f69d3c21bcecceda1000000601e62000d1d565b620003ad8260646200035f69d3c21bcecceda1000000601462000d1d565b620003cb8160646200035f69d3c21bcecceda1000000600a62000d1d565b5050505062000e42565b5f602083511015620003f457620003ec836200049a565b905062000407565b8162000401848262000c3d565b5060ff90505b92915050565b600b80546001600160a01b038381166001600160a01b0319831681179093556040519116919082907f8be0079c531659141344cd1fd0a4f28419497f9722a3daafe3b4186f6b6457e0905f90a35050565b6001600160a01b038216620004895760405163ec442f0560e01b81525f6004820152602401620001d9565b620004965f8383620004dc565b5050565b5f80829050601f81511115620004c7578260405163305a27a960e01b8152600401620001d9919062000d57565b8051620004d48262000da5565b179392505050565b620004e9838383620004ee565b505050565b620004fb8383836200055c565b6001600160a01b0383166200054f575f6200051560025490565b90506001600160d01b03808211156200054c57604051630e58ae9360e11b81526004810183905260248101829052604401620001d9565b50505b620004e98383836200068b565b6001600160a01b0383166200058a578060025f8282546200057e919062000dc9565b90915550620005fc9050565b6001600160a01b0383165f9081526020819052604090205481811015620005de5760405163391434e360e21b81526001600160a01b03851660048201526024810182905260448101839052606401620001d9565b6001600160a01b0384165f9081526020819052604090209082900390555b6001600160a01b0382166200061a5760028054829003905562000638565b6001600160a01b0382165f9081526020819052604090208054820190555b816001600160a01b0316836001600160a01b03167fddf252ad1be2c89b69c2b068fc378daa952ba7f163c4a11628f55a4df523b3ef836040516200067e91815260200190565b60405180910390a3505050565b6001600160a01b038316620006c057620006bd600a620009516200072260201b17620006b78462000736565b6200076f565b50505b6001600160a01b038216620006ef57620006ec600a6200095c620007ab60201b17620006b78462000736565b50505b6001600160a01b038381165f90815260086020526040808220548584168352912054620004e992918216911683620007b8565b5f6200072f828462000ddf565b9392505050565b5f6001600160d01b038211156200076b576040516306dfcc6560e41b815260d0600482015260248101839052604401620001d9565b5090565b5f806200079e6200077f6200091a565b620007956200078e886200092a565b868860201c565b87919062000976565b915091505b935093915050565b5f6200072f828462000e09565b816001600160a01b0316836001600160a01b031614158015620007da57505f81115b15620004e9576001600160a01b038316156200087b576001600160a01b0383165f90815260096020908152604082208291620008279190620007ab901b6200095c17620006b78662000736565b6001600160d01b031691506001600160d01b03169150846001600160a01b03165f8051602062002d1b833981519152838360405162000870929190918252602082015260400190565b60405180910390a250505b6001600160a01b03821615620004e9576001600160a01b0382165f90815260096020908152604082208291620008c2919062000722901b6200095117620006b78662000736565b6001600160d01b031691506001600160d01b03169150836001600160a01b03165f8051602062002d1b83398151915283836040516200090b929190918252602082015260400190565b60405180910390a25050505050565b5f6200092562000985565b905090565b80545f9080156200096e5762000954836200094760018462000e2c565b5f91825260209091200190565b54660100000000000090046001600160d01b03166200072f565b5f9392505050565b5f806200079e85858562000991565b5f620009254362000af6565b82545f908190801562000a98575f620009b1876200094760018562000e2c565b805490915065ffffffffffff80821691660100000000000090046001600160d01b0316908816821115620009f857604051632520601d60e01b815260040160405180910390fd5b8765ffffffffffff168265ffffffffffff160362000a3657825465ffffffffffff1666010000000000006001600160d01b0389160217835562000a89565b6040805180820190915265ffffffffffff808a1682526001600160d01b03808a1660208085019182528d54600181018f555f8f815291909120945191519092166601000000000000029216919091179101555b9450859350620007a392505050565b50506040805180820190915265ffffffffffff80851682526001600160d01b0380851660208085019182528854600181018a555f8a8152918220955192519093166601000000000000029190931617920191909155905081620007a3565b5f65ffffffffffff8211156200076b576040516306dfcc6560e41b81526030600482015260248101839052604401620001d9565b80516001600160a01b038116811462000b41575f80fd5b919050565b5f805f806080858703121562000b5a575f80fd5b62000b658562000b2a565b935062000b756020860162000b2a565b925062000b856040860162000b2a565b915062000b956060860162000b2a565b905092959194509250565b634e487b7160e01b5f52604160045260245ffd5b600181811c9082168062000bc957607f821691505b60208210810362000be857634e487b7160e01b5f52602260045260245ffd5b50919050565b601f821115620004e957805f5260205f20601f840160051c8101602085101562000c155750805b601f840160051c820191505b8181101562000c36575f815560010162000c21565b5050505050565b81516001600160401b0381111562000c595762000c5962000ba0565b62000c718162000c6a845462000bb4565b8462000bee565b602080601f83116001811462000ca7575f841562000c8f5750858301515b5f19600386901b1c1916600185901b17855562000d01565b5f85815260208120601f198616915b8281101562000cd75788860151825594840194600190910190840162000cb6565b508582101562000cf557878501515f19600388901b60f8161c191681555b505060018460011b0185555b505050505050565b634e487b7160e01b5f52601160045260245ffd5b808202811582820484141762000407576200040762000d09565b5f8262000d5257634e487b7160e01b5f52601260045260245ffd5b500490565b5f602080835283518060208501525f5b8181101562000d855785810183015185820160400152820162000d67565b505f604082860101526040601f19601f8301168501019250505092915050565b8051602080830151919081101562000be8575f1960209190910360031b1b16919050565b8082018082111562000407576200040762000d09565b6001600160d01b0381811683821601908082111562000e025762000e0262000d09565b5092915050565b6001600160d01b0382811682821603908082111562000e025762000e0262000d09565b8181038181111562000407576200040762000d09565b60805160a05160c05160e051610100516101205161014051611e8762000e945f395f610e1801525f610deb01525f610b2b01525f610b0301525f610a5e01525f610a8801525f610ab20152611e875ff3fe608060405234801561000f575f80fd5b50600436106101bb575f3560e01c8063715018a6116100f35780639ab24eb011610093578063d505accf1161006e578063d505accf146103dd578063dd62ed3e146103f0578063f1127ed814610428578063f2fde38b14610467575f80fd5b80639ab24eb0146103a4578063a9059cbb146103b7578063c3cda520146103ca575f80fd5b80638da5cb5b116100ce5780638da5cb5b146103595780638e539e8c1461036a57806391ddadf41461037d57806395d89b411461039c575f80fd5b8063715018a6146103235780637ecebe001461032b57806384b0196e1461033e575f80fd5b80633a46b1a81161015e578063587cde1e11610139578063587cde1e1461027d5780635c19a95c146102c05780636fcfff45146102d357806370a08231146102fb575f80fd5b80633a46b1a81461024d57806340c10f19146102605780634bf5d7e914610275575f80fd5b806323b872dd1161019957806323b872dd146102125780632ff2e9dc14610225578063313ce567146102365780633644e51514610245575f80fd5b806306fdde03146101bf578063095ea7b3146101dd57806318160ddd14610200575b5f80fd5b6101c761047a565b6040516101d49190611ad0565b60405180910390f35b6101f06101eb366004611afd565b61050a565b60405190151581526020016101d4565b6002545b6040519081526020016101d4565b6101f0610220366004611b25565b610523565b61020469d3c21bcecceda100000081565b604051601281526020016101d4565b610204610546565b61020461025b366004611afd565b610554565b61027361026e366004611afd565b61058e565b005b6101c76105a4565b6102a861028b366004611b5e565b6001600160a01b039081165f908152600860205260409020541690565b6040516001600160a01b0390911681526020016101d4565b6102736102ce366004611b5e565b61061c565b6102e66102e1366004611b5e565b610627565b60405163ffffffff90911681526020016101d4565b610204610309366004611b5e565b6001600160a01b03165f9081526020819052604090205490565b610273610631565b610204610339366004611b5e565b610644565b61034661064e565b6040516101d49796959493929190611b77565b600b546001600160a01b03166102a8565b610204610378366004611c0e565b610690565b6103856106b4565b60405165ffffffffffff90911681526020016101d4565b6101c76106bd565b6102046103b2366004611b5e565b6106cc565b6101f06103c5366004611afd565b6106ec565b6102736103d8366004611c35565b6106f9565b6102736103eb366004611c89565b6107ba565b6102046103fe366004611cee565b6001600160a01b039182165f90815260016020908152604080832093909416825291909152205490565b61043b610436366004611d1f565b6108f0565b60408051825165ffffffffffff1681526020928301516001600160d01b031692810192909252016101d4565b610273610475366004611b5e565b610914565b60606003805461048990611d5c565b80601f01602080910402602001604051908101604052809291908181526020018280546104b590611d5c565b80156105005780601f106104d757610100808354040283529160200191610500565b820191905f5260205f20905b8154815290600101906020018083116104e357829003601f168201915b5050505050905090565b5f33610517818585610967565b60019150505b92915050565b5f33610530858285610979565b61053b8585856109f5565b506001949350505050565b5f61054f610a52565b905090565b5f61057e61056183610b7b565b6001600160a01b0385165f90815260096020526040902090610bc9565b6001600160d01b03169392505050565b610596610c79565b6105a08282610ca6565b5050565b60606105ae610cda565b65ffffffffffff166105be6106b4565b65ffffffffffff16146105e4576040516301bfc1c560e61b815260040160405180910390fd5b5060408051808201909152601d81527f6d6f64653d626c6f636b6e756d6265722666726f6d3d64656661756c74000000602082015290565b336105a08183610ce4565b5f61051d82610d55565b610639610c79565b6106425f610d76565b565b5f61051d82610dc7565b5f6060805f805f606061065f610de4565b610667610e11565b604080515f80825260208201909252600f60f81b9b939a50919850469750309650945092509050565b5f6106a561069d83610b7b565b600a90610bc9565b6001600160d01b031692915050565b5f61054f610cda565b60606004805461048990611d5c565b6001600160a01b0381165f9081526009602052604081206106a590610e3e565b5f336105178185856109f5565b8342111561072257604051632341d78760e11b8152600481018590526024015b60405180910390fd5b604080517fe48329057bfd03d55e49b547132e39cffd9c1820ad7b9d4c5307691425d15adf60208201526001600160a01b0388169181019190915260608101869052608081018590525f9061079b906107939060a00160405160208183030381529060405280519060200120610e75565b858585610ea1565b90506107a78187610ecd565b6107b18188610ce4565b50505050505050565b834211156107de5760405163313c898160e11b815260048101859052602401610719565b5f7f6e71edae12b1b97f4d1f60370fef10105fa2faae0126114a169c64845d6126c98888886108298c6001600160a01b03165f90815260076020526040902080546001810190915590565b6040805160208101969096526001600160a01b0394851690860152929091166060840152608083015260a082015260c0810186905260e0016040516020818303038152906040528051906020012090505f61088382610e75565b90505f61089282878787610ea1565b9050896001600160a01b0316816001600160a01b0316146108d9576040516325c0072360e11b81526001600160a01b0380831660048301528b166024820152604401610719565b6108e48a8a8a610967565b50505050505050505050565b604080518082019091525f808252602082015261090d8383610f1f565b9392505050565b61091c610c79565b6001600160a01b03811661094557604051631e4fbdf760e01b81525f6004820152602401610719565b61094e81610d76565b50565b5f61090d8284611da8565b5f61090d8284611dcf565b6109748383836001610f53565b505050565b6001600160a01b038381165f908152600160209081526040808320938616835292905220545f198110156109ef57818110156109e157604051637dc7a0d960e11b81526001600160a01b03841660048201526024810182905260448101839052606401610719565b6109ef84848484035f610f53565b50505050565b6001600160a01b038316610a1e57604051634b637e8f60e11b81525f6004820152602401610719565b6001600160a01b038216610a475760405163ec442f0560e01b81525f6004820152602401610719565b610974838383611025565b5f306001600160a01b037f000000000000000000000000000000000000000000000000000000000000000016148015610aaa57507f000000000000000000000000000000000000000000000000000000000000000046145b15610ad457507f000000000000000000000000000000000000000000000000000000000000000090565b61054f604080517f8b73c3c69bb8fe3d512ecc4cf759cc79239f7b179b0ffacaa9a75d522b39400f60208201527f0000000000000000000000000000000000000000000000000000000000000000918101919091527f000000000000000000000000000000000000000000000000000000000000000060608201524660808201523060a08201525f9060c00160405160208183030381529060405280519060200120905090565b5f80610b856106b4565b90508065ffffffffffff168310610bc057604051637669fc0f60e11b81526004810184905265ffffffffffff82166024820152604401610719565b61090d83611030565b81545f9081816005811115610c25575f610be284611066565b610bec9085611def565b5f8881526020902090915081015465ffffffffffff9081169087161015610c1557809150610c23565b610c20816001611e02565b92505b505b5f610c32878785856111be565b90508015610c6c57610c5687610c49600184611def565b5f91825260209091200190565b54600160301b90046001600160d01b0316610c6e565b5f5b979650505050505050565b600b546001600160a01b031633146106425760405163118cdaa760e01b8152336004820152602401610719565b6001600160a01b038216610ccf5760405163ec442f0560e01b81525f6004820152602401610719565b6105a05f8383611025565b5f61054f43611030565b6001600160a01b038281165f8181526008602052604080822080548686166001600160a01b0319821681179092559151919094169392849290917f3134e8a2e6d97e929a7e54011ea5485d7d196dd5f0ba4d4ef95803e8e3fc257f9190a46109748183610d5086611214565b611231565b6001600160a01b0381165f9081526009602052604081205461051d9061139a565b600b80546001600160a01b038381166001600160a01b0319831681179093556040519116919082907f8be0079c531659141344cd1fd0a4f28419497f9722a3daafe3b4186f6b6457e0905f90a35050565b6001600160a01b0381165f9081526007602052604081205461051d565b606061054f7f000000000000000000000000000000000000000000000000000000000000000060056113ca565b606061054f7f000000000000000000000000000000000000000000000000000000000000000060066113ca565b80545f908015610e6d57610e5783610c49600184611def565b54600160301b90046001600160d01b031661090d565b5f9392505050565b5f61051d610e81610a52565b8360405161190160f01b8152600281019290925260228201526042902090565b5f805f80610eb188888888611473565b925092509250610ec1828261153b565b50909695505050505050565b6001600160a01b0382165f908152600760205260409020805460018101909155818114610974576040516301d4b62360e61b81526001600160a01b038416600482015260248101829052604401610719565b604080518082019091525f80825260208201526001600160a01b0383165f90815260096020526040902061090d90836115f3565b6001600160a01b038416610f7c5760405163e602df0560e01b81525f6004820152602401610719565b6001600160a01b038316610fa557604051634a1406b160e11b81525f6004820152602401610719565b6001600160a01b038085165f90815260016020908152604080832093871683529290522082905580156109ef57826001600160a01b0316846001600160a01b03167f8c5be1e5ebec7d5bd14f71427d1e84f3dd0314c0f7b2291e5b200ac8c7c3b9258460405161101791815260200190565b60405180910390a350505050565b610974838383611660565b5f65ffffffffffff821115611062576040516306dfcc6560e41b81526030600482015260248101839052604401610719565b5090565b5f60018211611073575090565b816001600160801b821061108c5760809190911c9060401b5b6801000000000000000082106110a75760409190911c9060201b5b64010000000082106110be5760209190911c9060101b5b6201000082106110d35760109190911c9060081b5b61010082106110e75760089190911c9060041b5b601082106110fa5760049190911c9060021b5b600482106111065760011b5b600302600190811c9081858161111e5761111e611e15565b048201901c9050600181858161113657611136611e15565b048201901c9050600181858161114e5761114e611e15565b048201901c9050600181858161116657611166611e15565b048201901c9050600181858161117e5761117e611e15565b048201901c9050600181858161119657611196611e15565b048201901c90506111b58185816111af576111af611e15565b04821190565b90039392505050565b5f5b8183101561120c575f85815260209020838316600285851804019081015465ffffffffffff868116911611156111f857809250611206565b611203816001611e02565b93505b506111c0565b509392505050565b6001600160a01b0381165f9081526020819052604081205461051d565b816001600160a01b0316836001600160a01b03161415801561125257505f81115b15610974576001600160a01b038316156112f9576001600160a01b0383165f90815260096020526040812081906112949061095c61128f866116c6565b6116f9565b6001600160d01b031691506001600160d01b03169150846001600160a01b03167fdec2bacdd2f05b59de34da9b523dff8be42e5e38e818c82fdb0bae774387a72483836040516112ee929190918252602082015260400190565b60405180910390a250505b6001600160a01b03821615610974576001600160a01b0382165f90815260096020526040812081906113319061095161128f866116c6565b6001600160d01b031691506001600160d01b03169150836001600160a01b03167fdec2bacdd2f05b59de34da9b523dff8be42e5e38e818c82fdb0bae774387a724838360405161138b929190918252602082015260400190565b60405180910390a25050505050565b5f63ffffffff821115611062576040516306dfcc6560e41b81526020600482015260248101839052604401610719565b606060ff83146113e4576113dd83611731565b905061051d565b8180546113f090611d5c565b80601f016020809104026020016040519081016040528092919081815260200182805461141c90611d5c565b80156114675780601f1061143e57610100808354040283529160200191611467565b820191905f5260205f20905b81548152906001019060200180831161144a57829003601f168201915b5050505050905061051d565b5f80807f7fffffffffffffffffffffffffffffff5d576e7357a4501ddfe92f46681b20a08411156114ac57505f91506003905082611531565b604080515f808252602082018084528a905260ff891692820192909252606081018790526080810186905260019060a0016020604051602081039080840390855afa1580156114fd573d5f803e3d5ffd5b5050604051601f1901519150506001600160a01b03811661152857505f925060019150829050611531565b92505f91508190505b9450945094915050565b5f82600381111561154e5761154e611e29565b03611557575050565b600182600381111561156b5761156b611e29565b036115895760405163f645eedf60e01b815260040160405180910390fd5b600282600381111561159d5761159d611e29565b036115be5760405163fce698f760e01b815260048101829052602401610719565b60038260038111156115d2576115d2611e29565b036105a0576040516335e2f38360e21b815260048101829052602401610719565b604080518082019091525f8082526020820152825f018263ffffffff168154811061162057611620611e3d565b5f9182526020918290206040805180820190915291015465ffffffffffff81168252600160301b90046001600160d01b0316918101919091529392505050565b61166b83838361176e565b6001600160a01b0383166116bb575f61168360025490565b90506001600160d01b03808211156116b857604051630e58ae9360e11b81526004810183905260248101829052604401610719565b50505b610974838383611894565b5f6001600160d01b03821115611062576040516306dfcc6560e41b815260d0600482015260248101839052604401610719565b5f806117246117066106b4565b61171c61171288610e3e565b868863ffffffff16565b879190611909565b915091505b935093915050565b60605f61173d83611916565b6040805160208082528183019092529192505f91906020820181803683375050509182525060208101929092525090565b6001600160a01b038316611798578060025f82825461178d9190611e02565b909155506118089050565b6001600160a01b0383165f90815260208190526040902054818110156117ea5760405163391434e360e21b81526001600160a01b03851660048201526024810182905260448101839052606401610719565b6001600160a01b0384165f9081526020819052604090209082900390555b6001600160a01b03821661182457600280548290039055611842565b6001600160a01b0382165f9081526020819052604090208054820190555b816001600160a01b0316836001600160a01b03167fddf252ad1be2c89b69c2b068fc378daa952ba7f163c4a11628f55a4df523b3ef8360405161188791815260200190565b60405180910390a3505050565b6001600160a01b0383166118b6576118b3600a61095161128f846116c6565b50505b6001600160a01b0382166118d8576118d5600a61095c61128f846116c6565b50505b6001600160a01b038381165f9081526008602052604080822054858416835291205461097492918216911683611231565b5f8061172485858561193d565b5f60ff8216601f81111561051d57604051632cd44ac360e21b815260040160405180910390fd5b82545f9081908015611a33575f61195987610c49600185611def565b805490915065ffffffffffff80821691600160301b90046001600160d01b031690881682111561199c57604051632520601d60e01b815260040160405180910390fd5b8765ffffffffffff168265ffffffffffff16036119d557825465ffffffffffff16600160301b6001600160d01b03891602178355611a25565b6040805180820190915265ffffffffffff808a1682526001600160d01b03808a1660208085019182528d54600181018f555f8f81529190912094519151909216600160301b029216919091179101555b945085935061172992505050565b50506040805180820190915265ffffffffffff80851682526001600160d01b0380851660208085019182528854600181018a555f8a815291822095519251909316600160301b029190931617920191909155905081611729565b5f81518084525f5b81811015611ab157602081850181015186830182015201611a95565b505f602082860101526020601f19601f83011685010191505092915050565b602081525f61090d6020830184611a8d565b80356001600160a01b0381168114611af8575f80fd5b919050565b5f8060408385031215611b0e575f80fd5b611b1783611ae2565b946020939093013593505050565b5f805f60608486031215611b37575f80fd5b611b4084611ae2565b9250611b4e60208501611ae2565b9150604084013590509250925092565b5f60208284031215611b6e575f80fd5b61090d82611ae2565b60ff60f81b881681525f602060e06020840152611b9760e084018a611a8d565b8381036040850152611ba9818a611a8d565b606085018990526001600160a01b038816608086015260a0850187905284810360c0860152855180825260208088019350909101905f5b81811015611bfc57835183529284019291840191600101611be0565b50909c9b505050505050505050505050565b5f60208284031215611c1e575f80fd5b5035919050565b803560ff81168114611af8575f80fd5b5f805f805f8060c08789031215611c4a575f80fd5b611c5387611ae2565b95506020870135945060408701359350611c6f60608801611c25565b92506080870135915060a087013590509295509295509295565b5f805f805f805f60e0888a031215611c9f575f80fd5b611ca888611ae2565b9650611cb660208901611ae2565b95506040880135945060608801359350611cd260808901611c25565b925060a0880135915060c0880135905092959891949750929550565b5f8060408385031215611cff575f80fd5b611d0883611ae2565b9150611d1660208401611ae2565b90509250929050565b5f8060408385031215611d30575f80fd5b611d3983611ae2565b9150602083013563ffffffff81168114611d51575f80fd5b809150509250929050565b600181811c90821680611d7057607f821691505b602082108103611d8e57634e487b7160e01b5f52602260045260245ffd5b50919050565b634e487b7160e01b5f52601160045260245ffd5b6001600160d01b03818116838216019080821115611dc857611dc8611d94565b5092915050565b6001600160d01b03828116828216039080821115611dc857611dc8611d94565b8181038181111561051d5761051d611d94565b8082018082111561051d5761051d611d94565b634e487b7160e01b5f52601260045260245ffd5b634e487b7160e01b5f52602160045260245ffd5b634e487b7160e01b5f52603260045260245ffdfea26469706673582212201d3be2c72738f51490b3d133346802fa724def2e0b8bdd77e5400e1c1a74f30b64736f6c63430008180033dec2bacdd2f05b59de34da9b523dff8be42e5e38e818c82fdb0bae774387a724",
  "linkReferences": {},
  "deployedLinkReferences": {}
}