{
  "_format": "hh-sol-artifact-1",
  "contractName": "Treasury",
  "sourceName": "contracts/Treasury.sol",
  "abi": [
    {
      "inputs": [
        {
          "internalType": "address",
          "name": "timelock",
          "type": "address"
        }
      ],
      "stateMutability": "nonpayable",
      "type": "constructor"
    },
    {
      "inputs": [
        {
          "internalType": "address",
          "name": "owner",
          "type": "address"
        }
      ],
      "name": "OwnableInvalidOwner",
      "type": "error"
    },
    {
      "inputs": [
        {
          "internalType": "address",
          "name": "account",
          "type": "address"
        }
      ],
      "name": "OwnableUnauthorizedAccount",
      "type": "error"
    },
    {
      "inputs": [
        {
          "internalType": "address",
          "name": "token",
          "type": "address"
        }
      ],
      "name": "SafeERC20FailedOperation",
      "type": "error"
    },
    {
      "anonymous": false,
      "inputs": [
        {
          "indexed": true,
          "internalType": "address",
          "name": "sender",
          "type": "address"
        },
        {
          "indexed": false,
          "internalType": "uint256",
          "name": "amount",
          "type": "uint256"
        }
      ],
      "name": "EtherReceived",
      "type": "event"
    },
    {
      "anonymous": false,
      "inputs": [
        {
          "indexed": true,
          "internalType": "address",
          "name": "to",
          "type": "address"
        },
        {
          "indexed": false,
          "internalType": "uint256",
          "name": "amount",
          "type": "uint256"
        }
      ],
      "name": "EtherReleased",
      "type": "event"
    },
    {
      "anonymous": false,
      "inputs": [
        {
          "indexed": true,
          "internalType": "address",
          "name": "previousOwner",
          "type": "address"
        },
        {
          "indexed": true,
          "internalType": "address",
          "name": "newOwner",
          "type": "address"
        }
      ],
      "name": "OwnershipTransferred",
      "type": "event"
    },
    {
      "anonymous": false,
      "inputs": [
        {
          "indexed": true,
          "internalType": "address",
          "name": "target",
          "type": "address"
        },
        {
          "indexed": false,
          "internalType": "uint256",
          "name": "value",
          "type": "uint256"
        },
        {
          "indexed": false,
          "internalType": "bytes",
          "name": "data",
          "type": "bytes"
        },
        {
          "indexed": false,
          "internalType": "bytes",
          "name": "result",
          "type": "bytes"
        }
      ],
      "name": "TargetExecuted",
      "type": "event"
    },
    {
      "anonymous": false,
      "inputs": [
        {
          "indexed": true,
          "internalType": "address",
          "name": "token",
          "type": "address"
        },
        {
          "indexed": true,
          "internalType": "address",
          "name": "to",
          "type": "address"
        },
        {
          "indexed": false,
          "internalType": "uint256",
          "name": "amount",
          "type": "uint256"
        }
      ],
      "name": "TokenReleased",
      "type": "event"
    },
    {
      "inputs": [
        {
          "internalType": "address",
          "name": "target",
          "type": "address"
        },
        {
          "internalType": "uint256",
          "name": "value",
          "type": "uint256"
        },
        {
          "internalType": "bytes",
          "name": "data",
          "type": "bytes"
        }
      ],
      "name": "execute",
      "outputs": [
        {
          "internalType": "bytes",
          "name": "",
          "type": "bytes"
        }
      ],
      "stateMutability": "nonpayable",
      "type": "function"
    },
    {
      "inputs": [],
      "name": "owner",
      "outputs": [
        {
          "internalType": "address",
          "name": "",
          "type": "address"
        }
      ],
      "stateMutability": "view",
      "type": "function"
    },
    {
      "inputs": [
        {
          "internalType": "address payable",
          "name": "to",
          "type": "address"
        },
        {
          "internalType": "uint256",
          "name": "amount",
          "type": "uint256"
        }
      ],
      "name": "releaseETH",
      "outputs": [],
      "stateMutability": "nonpayable",
      "type": "function"
    },
    {
      "inputs": [
        {
          "internalType": "contract IERC20",
          "name": "token",
          "type": "address"
        },
        {
          "internalType": "address",
          "name": "to",
          "type": "address"
        },
        {
          "internalType": "uint256",
          "name": "amount",
          "type": "uint256"
        }
      ],
      "name": "releaseToken",
      "outputs": [],
      "stateMutability": "nonpayable",
      "type": "function"
    },
    {
      "inputs": [],
      "name": "renounceOwnership",
      "outputs": [],
      "stateMutability": "nonpayable",
      "type": "function"
    },
    {
      "inputs": [
        {
          "internalType": "address",
          "name": "newOwner",
          "type": "address"
        }
      ],
      "name": "transferOwnership",
      "outputs": [],
      "stateMutability": "nonpayable",
      "type": "function"
    },
    {
      "stateMutability": "payable",
      "type": "receive"
    }
  ],
  "bytecode": "0x608060405234801561000f575f80fd5b506040516109b93803806109b983398101604081905261002e91610102565b806001600160a01b03811661005d57604051631e4fbdf760e01b81525f60048201526024015b60405180910390fd5b610066816100b3565b506001600160a01b0381166100ad5760405162461bcd60e51b815260206004820152600d60248201526c74696d656c6f636b207a65726f60981b6044820152606401610054565b5061012f565b5f80546001600160a01b038381166001600160a01b0319831681178455604051919092169283917f8be0079c531659141344cd1fd0a4f28419497f9722a3daafe3b4186f6b6457e09190a35050565b5f60208284031215610112575f80fd5b81516001600160a01b0381168114610128575f80fd5b9392505050565b61087d8061013c5f395ff3fe608060405260043610610057575f3560e01c80636d09856014610097578063715018a6146100b85780638da5cb5b146100cc578063b61d27f6146100f7578063e8e71f0c14610123578063f2fde38b14610142575f80fd5b366100935760405134815233907f1e57e3bb474320be3d2c77138f75b7c3941292d647f5f9634e33a8e94e0e069b9060200160405180910390a2005b5f80fd5b3480156100a2575f80fd5b506100b66100b136600461068a565b610161565b005b3480156100c3575f80fd5b506100b661025e565b3480156100d7575f80fd5b505f546040516001600160a01b0390911681526020015b60405180910390f35b348015610102575f80fd5b506101166101113660046106c8565b610271565b6040516100ee919061078d565b34801561012e575f80fd5b506100b661013d3660046107a6565b6103b3565b34801561014d575f80fd5b506100b661015c3660046107d0565b610522565b61016961055f565b6001600160a01b0383166101b15760405162461bcd60e51b815260206004820152600a602482015269746f6b656e207a65726f60b01b60448201526064015b60405180910390fd5b6001600160a01b0382166101f85760405162461bcd60e51b815260206004820152600e60248201526d726563697069656e74207a65726f60901b60448201526064016101a8565b61020c6001600160a01b038416838361058b565b816001600160a01b0316836001600160a01b03167fa5fa891a402945a5916b3b11763e3446525ced0e1d55a45cb3d3024f22ce44868360405161025191815260200190565b60405180910390a3505050565b61026661055f565b61026f5f6105c5565b565b606061027b61055f565b6001600160a01b0385166102bf5760405162461bcd60e51b815260206004820152600b60248201526a746172676574207a65726f60a81b60448201526064016101a8565b5f80866001600160a01b03168686866040516102dc9291906107eb565b5f6040518083038185875af1925050503d805f8114610316576040519150601f19603f3d011682016040523d82523d5f602084013e61031b565b606091505b5091509150816103625760405162461bcd60e51b81526020600482015260126024820152711d185c99d95d0818d85b1b0819985a5b195960721b60448201526064016101a8565b866001600160a01b03167f1ad80ad52073b04a4b7c685ae5b6b13bc3ba39b84d4c340cdacffedff8451370878787856040516103a194939291906107fa565b60405180910390a29695505050505050565b6103bb61055f565b6001600160a01b0382166104025760405162461bcd60e51b815260206004820152600e60248201526d726563697069656e74207a65726f60901b60448201526064016101a8565b804710156104455760405162461bcd60e51b815260206004820152601060248201526f0d2dce6eaccccd2c6d2cadce840cae8d60831b60448201526064016101a8565b5f826001600160a01b0316826040515f6040518083038185875af1925050503d805f811461048e576040519150601f19603f3d011682016040523d82523d5f602084013e610493565b606091505b50509050806104da5760405162461bcd60e51b8152602060048201526013602482015272195d1a081d1c985b9cd9995c8819985a5b1959606a1b60448201526064016101a8565b826001600160a01b03167f7b9f77d35803cd201eac9c4ed739bc1fcd3f1be6ab8877d925d1e55517b6fd6e8360405161051591815260200190565b60405180910390a2505050565b61052a61055f565b6001600160a01b03811661055357604051631e4fbdf760e01b81525f60048201526024016101a8565b61055c816105c5565b50565b5f546001600160a01b0316331461026f5760405163118cdaa760e01b81523360048201526024016101a8565b6105988383836001610614565b6105c057604051635274afe760e01b81526001600160a01b03841660048201526024016101a8565b505050565b5f80546001600160a01b038381166001600160a01b0319831681178455604051919092169283917f8be0079c531659141344cd1fd0a4f28419497f9722a3daafe3b4186f6b6457e09190a35050565b60405163a9059cbb60e01b5f8181526001600160a01b038616600452602485905291602083604481808b5af1925060015f5114831661066a57838315161561065e573d5f823e3d81fd5b5f873b113d1516831692505b60405250949350505050565b6001600160a01b038116811461055c575f80fd5b5f805f6060848603121561069c575f80fd5b83356106a781610676565b925060208401356106b781610676565b929592945050506040919091013590565b5f805f80606085870312156106db575f80fd5b84356106e681610676565b935060208501359250604085013567ffffffffffffffff80821115610709575f80fd5b818701915087601f83011261071c575f80fd5b81358181111561072a575f80fd5b88602082850101111561073b575f80fd5b95989497505060200194505050565b5f81518084525f5b8181101561076e57602081850181015186830182015201610752565b505f602082860101526020601f19601f83011685010191505092915050565b602081525f61079f602083018461074a565b9392505050565b5f80604083850312156107b7575f80fd5b82356107c281610676565b946020939093013593505050565b5f602082840312156107e0575f80fd5b813561079f81610676565b818382375f9101908152919050565b84815260606020820152826060820152828460808301375f608084830101525f601f19601f8501168201608083820301604084015261083c608082018561074a565b97965050505050505056fea2646970667358221220fee1a78561614c8b636a88fd499b1140b9cc6ec780ad4f6dd9037e35e5c4397a64736f6c63430008180033",
  "linkReferences": {},
  "deployedLinkReferences": {}
}